{
    "contractName": "L1ERC721",
    "abi": [
        {
            "inputs": [],
            "stateMutability": "nonpayable",
            "type": "constructor"
        },
        {
            "anonymous": false,
            "inputs": [
                {
                    "indexed": true,
                    "internalType": "address",
                    "name": "owner",
                    "type": "address"
                },
                {
                    "indexed": true,
                    "internalType": "address",
                    "name": "approved",
                    "type": "address"
                },
                {
                    "indexed": true,
                    "internalType": "uint256",
                    "name": "tokenId",
                    "type": "uint256"
                }
            ],
            "name": "Approval",
            "type": "event"
        },
        {
            "anonymous": false,
            "inputs": [
                {
                    "indexed": true,
                    "internalType": "address",
                    "name": "owner",
                    "type": "address"
                },
                {
                    "indexed": true,
                    "internalType": "address",
                    "name": "operator",
                    "type": "address"
                },
                {
                    "indexed": false,
                    "internalType": "bool",
                    "name": "approved",
                    "type": "bool"
                }
            ],
            "name": "ApprovalForAll",
            "type": "event"
        },
        {
            "anonymous": false,
            "inputs": [
                {
                    "indexed": true,
                    "internalType": "uint256",
                    "name": "tokenId",
                    "type": "uint256"
                },
                {
                    "indexed": true,
                    "internalType": "uint256",
                    "name": "offchainId",
                    "type": "uint256"
                },
                {
                    "indexed": true,
                    "internalType": "address",
                    "name": "to",
                    "type": "address"
                }
            ],
            "name": "Minted",
            "type": "event"
        },
        {
            "anonymous": false,
            "inputs": [
                {
                    "indexed": false,
                    "internalType": "address",
                    "name": "account",
                    "type": "address"
                }
            ],
            "name": "Paused",
            "type": "event"
        },
        {
            "anonymous": false,
            "inputs": [
                {
                    "indexed": true,
                    "internalType": "bytes32",
                    "name": "role",
                    "type": "bytes32"
                },
                {
                    "indexed": true,
                    "internalType": "bytes32",
                    "name": "previousAdminRole",
                    "type": "bytes32"
                },
                {
                    "indexed": true,
                    "internalType": "bytes32",
                    "name": "newAdminRole",
                    "type": "bytes32"
                }
            ],
            "name": "RoleAdminChanged",
            "type": "event"
        },
        {
            "anonymous": false,
            "inputs": [
                {
                    "indexed": true,
                    "internalType": "bytes32",
                    "name": "role",
                    "type": "bytes32"
                },
                {
                    "indexed": true,
                    "internalType": "address",
                    "name": "account",
                    "type": "address"
                },
                {
                    "indexed": true,
                    "internalType": "address",
                    "name": "sender",
                    "type": "address"
                }
            ],
            "name": "RoleGranted",
            "type": "event"
        },
        {
            "anonymous": false,
            "inputs": [
                {
                    "indexed": true,
                    "internalType": "bytes32",
                    "name": "role",
                    "type": "bytes32"
                },
                {
                    "indexed": true,
                    "internalType": "address",
                    "name": "account",
                    "type": "address"
                },
                {
                    "indexed": true,
                    "internalType": "address",
                    "name": "sender",
                    "type": "address"
                }
            ],
            "name": "RoleRevoked",
            "type": "event"
        },
        {
            "anonymous": false,
            "inputs": [
                {
                    "indexed": true,
                    "internalType": "uint256",
                    "name": "tokenId",
                    "type": "uint256"
                },
                {
                    "indexed": true,
                    "internalType": "address",
                    "name": "owner",
                    "type": "address"
                },
                {
                    "indexed": false,
                    "internalType": "string",
                    "name": "oldTokenURI",
                    "type": "string"
                },
                {
                    "indexed": false,
                    "internalType": "string",
                    "name": "tokenURI",
                    "type": "string"
                }
            ],
            "name": "SetTokenURI",
            "type": "event"
        },
        {
            "anonymous": false,
            "inputs": [
                {
                    "indexed": true,
                    "internalType": "address",
                    "name": "from",
                    "type": "address"
                },
                {
                    "indexed": true,
                    "internalType": "address",
                    "name": "to",
                    "type": "address"
                },
                {
                    "indexed": true,
                    "internalType": "uint256",
                    "name": "tokenId",
                    "type": "uint256"
                }
            ],
            "name": "Transfer",
            "type": "event"
        },
        {
            "anonymous": false,
            "inputs": [
                {
                    "indexed": false,
                    "internalType": "address",
                    "name": "account",
                    "type": "address"
                }
            ],
            "name": "Unpaused",
            "type": "event"
        },
        {
            "inputs": [],
            "name": "DEFAULT_ADMIN_ROLE",
            "outputs": [
                {
                    "internalType": "bytes32",
                    "name": "",
                    "type": "bytes32"
                }
            ],
            "stateMutability": "view",
            "type": "function"
        },
        {
            "inputs": [],
            "name": "MINTER_ROLE",
            "outputs": [
                {
                    "internalType": "bytes32",
                    "name": "",
                    "type": "bytes32"
                }
            ],
            "stateMutability": "view",
            "type": "function"
        },
        {
            "inputs": [],
            "name": "PAUSER_ROLE",
            "outputs": [
                {
                    "internalType": "bytes32",
                    "name": "",
                    "type": "bytes32"
                }
            ],
            "stateMutability": "view",
            "type": "function"
        },
        {
            "inputs": [
                {
                    "internalType": "address",
                    "name": "to",
                    "type": "address"
                },
                {
                    "internalType": "uint256",
                    "name": "tokenId",
                    "type": "uint256"
                }
            ],
            "name": "approve",
            "outputs": [],
            "stateMutability": "nonpayable",
            "type": "function"
        },
        {
            "inputs": [
                {
                    "internalType": "address",
                    "name": "owner",
                    "type": "address"
                }
            ],
            "name": "balanceOf",
            "outputs": [
                {
                    "internalType": "uint256",
                    "name": "",
                    "type": "uint256"
                }
            ],
            "stateMutability": "view",
            "type": "function"
        },
        {
            "inputs": [
                {
                    "internalType": "uint256",
                    "name": "tokenId",
                    "type": "uint256"
                }
            ],
            "name": "burn",
            "outputs": [],
            "stateMutability": "nonpayable",
            "type": "function"
        },
        {
            "inputs": [
                {
                    "internalType": "uint256",
                    "name": "tokenId",
                    "type": "uint256"
                }
            ],
            "name": "getApproved",
            "outputs": [
                {
                    "internalType": "address",
                    "name": "",
                    "type": "address"
                }
            ],
            "stateMutability": "view",
            "type": "function"
        },
        {
            "inputs": [
                {
                    "internalType": "bytes32",
                    "name": "role",
                    "type": "bytes32"
                }
            ],
            "name": "getRoleAdmin",
            "outputs": [
                {
                    "internalType": "bytes32",
                    "name": "",
                    "type": "bytes32"
                }
            ],
            "stateMutability": "view",
            "type": "function"
        },
        {
            "inputs": [
                {
                    "internalType": "bytes32",
                    "name": "role",
                    "type": "bytes32"
                },
                {
                    "internalType": "uint256",
                    "name": "index",
                    "type": "uint256"
                }
            ],
            "name": "getRoleMember",
            "outputs": [
                {
                    "internalType": "address",
                    "name": "",
                    "type": "address"
                }
            ],
            "stateMutability": "view",
            "type": "function"
        },
        {
            "inputs": [
                {
                    "internalType": "bytes32",
                    "name": "role",
                    "type": "bytes32"
                }
            ],
            "name": "getRoleMemberCount",
            "outputs": [
                {
                    "internalType": "uint256",
                    "name": "",
                    "type": "uint256"
                }
            ],
            "stateMutability": "view",
            "type": "function"
        },
        {
            "inputs": [
                {
                    "internalType": "bytes32",
                    "name": "role",
                    "type": "bytes32"
                },
                {
                    "internalType": "address",
                    "name": "account",
                    "type": "address"
                }
            ],
            "name": "grantRole",
            "outputs": [],
            "stateMutability": "nonpayable",
            "type": "function"
        },
        {
            "inputs": [
                {
                    "internalType": "bytes32",
                    "name": "role",
                    "type": "bytes32"
                },
                {
                    "internalType": "address",
                    "name": "account",
                    "type": "address"
                }
            ],
            "name": "hasRole",
            "outputs": [
                {
                    "internalType": "bool",
                    "name": "",
                    "type": "bool"
                }
            ],
            "stateMutability": "view",
            "type": "function"
        },
        {
            "inputs": [
                {
                    "internalType": "string",
                    "name": "name",
                    "type": "string"
                },
                {
                    "internalType": "string",
                    "name": "symbol",
                    "type": "string"
                },
                {
                    "internalType": "string",
                    "name": "baseTokenURI",
                    "type": "string"
                }
            ],
            "name": "initialize",
            "outputs": [],
            "stateMutability": "nonpayable",
            "type": "function"
        },
        {
            "inputs": [
                {
                    "internalType": "address",
                    "name": "owner",
                    "type": "address"
                },
                {
                    "internalType": "address",
                    "name": "operator",
                    "type": "address"
                }
            ],
            "name": "isApprovedForAll",
            "outputs": [
                {
                    "internalType": "bool",
                    "name": "",
                    "type": "bool"
                }
            ],
            "stateMutability": "view",
            "type": "function"
        },
        {
            "inputs": [
                {
                    "internalType": "string",
                    "name": "offchainRef",
                    "type": "string"
                }
            ],
            "name": "makeOffchainId",
            "outputs": [
                {
                    "internalType": "bytes32",
                    "name": "",
                    "type": "bytes32"
                }
            ],
            "stateMutability": "pure",
            "type": "function"
        },
        {
            "inputs": [
                {
                    "internalType": "address",
                    "name": "to",
                    "type": "address"
                },
                {
                    "internalType": "string",
                    "name": "_tokenURI",
                    "type": "string"
                },
                {
                    "internalType": "uint256",
                    "name": "offchainId",
                    "type": "uint256"
                }
            ],
            "name": "mint",
            "outputs": [],
            "stateMutability": "nonpayable",
            "type": "function"
        },
        {
            "inputs": [
                {
                    "internalType": "address",
                    "name": "to",
                    "type": "address"
                },
                {
                    "internalType": "string",
                    "name": "_tokenURI",
                    "type": "string"
                },
                {
                    "internalType": "uint256",
                    "name": "offchainId",
                    "type": "uint256"
                }
            ],
            "name": "mintWith",
            "outputs": [],
            "stateMutability": "nonpayable",
            "type": "function"
        },
        {
            "inputs": [],
            "name": "name",
            "outputs": [
                {
                    "internalType": "string",
                    "name": "",
                    "type": "string"
                }
            ],
            "stateMutability": "view",
            "type": "function"
        },
        {
            "inputs": [
                {
                    "internalType": "uint256",
                    "name": "tokenId",
                    "type": "uint256"
                }
            ],
            "name": "ownerOf",
            "outputs": [
                {
                    "internalType": "address",
                    "name": "",
                    "type": "address"
                }
            ],
            "stateMutability": "view",
            "type": "function"
        },
        {
            "inputs": [],
            "name": "pause",
            "outputs": [],
            "stateMutability": "nonpayable",
            "type": "function"
        },
        {
            "inputs": [],
            "name": "paused",
            "outputs": [
                {
                    "internalType": "bool",
                    "name": "",
                    "type": "bool"
                }
            ],
            "stateMutability": "view",
            "type": "function"
        },
        {
            "inputs": [
                {
                    "internalType": "bytes32",
                    "name": "role",
                    "type": "bytes32"
                },
                {
                    "internalType": "address",
                    "name": "account",
                    "type": "address"
                }
            ],
            "name": "renounceRole",
            "outputs": [],
            "stateMutability": "nonpayable",
            "type": "function"
        },
        {
            "inputs": [
                {
                    "internalType": "bytes32",
                    "name": "role",
                    "type": "bytes32"
                },
                {
                    "internalType": "address",
                    "name": "account",
                    "type": "address"
                }
            ],
            "name": "revokeRole",
            "outputs": [],
            "stateMutability": "nonpayable",
            "type": "function"
        },
        {
            "inputs": [
                {
                    "internalType": "address",
                    "name": "from",
                    "type": "address"
                },
                {
                    "internalType": "address",
                    "name": "to",
                    "type": "address"
                },
                {
                    "internalType": "uint256",
                    "name": "tokenId",
                    "type": "uint256"
                }
            ],
            "name": "safeTransferFrom",
            "outputs": [],
            "stateMutability": "nonpayable",
            "type": "function"
        },
        {
            "inputs": [
                {
                    "internalType": "address",
                    "name": "from",
                    "type": "address"
                },
                {
                    "internalType": "address",
                    "name": "to",
                    "type": "address"
                },
                {
                    "internalType": "uint256",
                    "name": "tokenId",
                    "type": "uint256"
                },
                {
                    "internalType": "bytes",
                    "name": "_data",
                    "type": "bytes"
                }
            ],
            "name": "safeTransferFrom",
            "outputs": [],
            "stateMutability": "nonpayable",
            "type": "function"
        },
        {
            "inputs": [
                {
                    "internalType": "address",
                    "name": "operator",
                    "type": "address"
                },
                {
                    "internalType": "bool",
                    "name": "approved",
                    "type": "bool"
                }
            ],
            "name": "setApprovalForAll",
            "outputs": [],
            "stateMutability": "nonpayable",
            "type": "function"
        },
        {
            "inputs": [
                {
                    "internalType": "uint256",
                    "name": "tokenId",
                    "type": "uint256"
                },
                {
                    "internalType": "string",
                    "name": "newTokenURI",
                    "type": "string"
                }
            ],
            "name": "setTokenURI",
            "outputs": [],
            "stateMutability": "nonpayable",
            "type": "function"
        },
        {
            "inputs": [
                {
                    "internalType": "bytes4",
                    "name": "interfaceId",
                    "type": "bytes4"
                }
            ],
            "name": "supportsInterface",
            "outputs": [
                {
                    "internalType": "bool",
                    "name": "",
                    "type": "bool"
                }
            ],
            "stateMutability": "view",
            "type": "function"
        },
        {
            "inputs": [],
            "name": "symbol",
            "outputs": [
                {
                    "internalType": "string",
                    "name": "",
                    "type": "string"
                }
            ],
            "stateMutability": "view",
            "type": "function"
        },
        {
            "inputs": [
                {
                    "internalType": "uint256",
                    "name": "index",
                    "type": "uint256"
                }
            ],
            "name": "tokenByIndex",
            "outputs": [
                {
                    "internalType": "uint256",
                    "name": "",
                    "type": "uint256"
                }
            ],
            "stateMutability": "view",
            "type": "function"
        },
        {
            "inputs": [
                {
                    "internalType": "address",
                    "name": "owner",
                    "type": "address"
                },
                {
                    "internalType": "uint256",
                    "name": "index",
                    "type": "uint256"
                }
            ],
            "name": "tokenOfOwnerByIndex",
            "outputs": [
                {
                    "internalType": "uint256",
                    "name": "",
                    "type": "uint256"
                }
            ],
            "stateMutability": "view",
            "type": "function"
        },
        {
            "inputs": [
                {
                    "internalType": "uint256",
                    "name": "tokenId",
                    "type": "uint256"
                }
            ],
            "name": "tokenURI",
            "outputs": [
                {
                    "internalType": "string",
                    "name": "",
                    "type": "string"
                }
            ],
            "stateMutability": "view",
            "type": "function"
        },
        {
            "inputs": [],
            "name": "totalSupply",
            "outputs": [
                {
                    "internalType": "uint256",
                    "name": "",
                    "type": "uint256"
                }
            ],
            "stateMutability": "view",
            "type": "function"
        },
        {
            "inputs": [
                {
                    "internalType": "address",
                    "name": "from",
                    "type": "address"
                },
                {
                    "internalType": "address",
                    "name": "to",
                    "type": "address"
                },
                {
                    "internalType": "uint256",
                    "name": "tokenId",
                    "type": "uint256"
                }
            ],
            "name": "transferFrom",
            "outputs": [],
            "stateMutability": "nonpayable",
            "type": "function"
        },
        {
            "inputs": [],
            "name": "unpause",
            "outputs": [],
            "stateMutability": "nonpayable",
            "type": "function"
        }
    ],
    "bytecode": "60806040523480156200001157600080fd5b506200001f6000336200007d565b6200004b7f9f2df0fed2c77648de5860a4cc508cd0818c85b8b8a1ab4ceeef8d981c8956a6336200007d565b620000777f65d7a28e3265b37a6474929f336521b332c1681b933f6cb9f3376673440d862a336200007d565b620001e6565b620000948282620000c060201b620011441760201c565b6000828152609760209081526040909120620000bb91839062001152620000d0821b17901c565b505050565b620000cc8282620000f0565b5050565b6000620000e7836001600160a01b03841662000194565b90505b92915050565b60008281526065602090815260408083206001600160a01b038516845290915290205460ff16620000cc5760008281526065602090815260408083206001600160a01b03851684529091529020805460ff19166001179055620001503390565b6001600160a01b0316816001600160a01b0316837f2f8788117e7eff1d82e926ec794901d17c78024a50270940304540a733656f0d60405160405180910390a45050565b6000818152600183016020526040812054620001dd57508154600181810184556000848152602080822090930184905584548482528286019093526040902091909155620000ea565b506000620000ea565b6132b380620001f66000396000f3fe608060405234801561001057600080fd5b50600436106102115760003560e01c806370a0823111610125578063b88d4fde116100ad578063ca15c8731161007c578063ca15c8731461045e578063d539139314610471578063d547741f14610486578063e63ab1e914610499578063e985e9c5146104ae57600080fd5b8063b88d4fde14610412578063ba7aef4314610425578063c87b56dd14610438578063c9b0aeba1461044b57600080fd5b806391d14854116100f457806391d14854146103c957806395d89b41146103dc578063a217fddf146103e4578063a22cb465146103ec578063a6487c53146103ff57600080fd5b806370a082311461038857806381b27aea1461039b5780638456cb59146103ae5780639010d07c146103b657600080fd5b80632f2ff15d116101a857806342842e0e1161017757806342842e0e1461033057806342966c68146103435780634f6ccce7146103565780635c975abb146103695780636352211e1461037557600080fd5b80632f2ff15d146102ef5780632f745c591461030257806336568abe146103155780633f4ba83a1461032857600080fd5b8063162094c4116101e4578063162094c41461029357806318160ddd146102a657806323b872dd146102b9578063248a9ca3146102cc57600080fd5b806301ffc9a71461021657806306fdde031461023e578063081812fc14610253578063095ea7b31461027e575b600080fd5b610229610224366004612c8e565b6104ea565b60405190151581526020015b60405180910390f35b6102466104fb565b6040516102359190612f26565b610266610261366004612c30565b61058d565b6040516001600160a01b039091168152602001610235565b61029161028c366004612c06565b61061a565b005b6102916102a1366004612dc2565b610730565b61012f545b604051908152602001610235565b6102916102c7366004612abb565b6107f8565b6102ab6102da366004612c30565b60009081526065602052604090206001015490565b6102916102fd366004612c49565b61082a565b6102ab610310366004612c06565b61084c565b610291610323366004612c49565b6108e3565b610291610905565b61029161033e366004612abb565b610986565b610291610351366004612c30565b6109a1565b6102ab610364366004612c30565b610a1b565b61015f5460ff16610229565b610266610383366004612c30565b610ab0565b6102ab610396366004612a6d565b610b27565b6102916103a9366004612baf565b610bae565b610291610d91565b6102666103c4366004612c6c565b610e0e565b6102296103d7366004612c49565b610e2d565b610246610e58565b6102ab600081565b6102916103fa366004612b73565b610e67565b61029161040d366004612d3a565b610f2c565b610291610420366004612af7565b610fa6565b610291610433366004612baf565b610fd8565b610246610446366004612c30565b6110e5565b6102ab610459366004612cc8565b6110f0565b6102ab61046c366004612c30565b611123565b6102ab60008051602061325e83398151915281565b610291610494366004612c49565b61113a565b6102ab60008051602061323e83398151915281565b6102296104bc366004612a88565b6001600160a01b03918216600090815260ce6020908152604080832093909416825291909152205460ff1690565b60006104f582611167565b92915050565b606060c9805461050a9061314f565b80601f01602080910402602001604051908101604052809291908181526020018280546105369061314f565b80156105835780601f1061055857610100808354040283529160200191610583565b820191906000526020600020905b81548152906001019060200180831161056657829003601f168201915b5050505050905090565b60006105988261118c565b6105fe5760405162461bcd60e51b815260206004820152602c60248201527f4552433732313a20617070726f76656420717565727920666f72206e6f6e657860448201526b34b9ba32b73a103a37b5b2b760a11b60648201526084015b60405180910390fd5b50600090815260cd60205260409020546001600160a01b031690565b600061062582610ab0565b9050806001600160a01b0316836001600160a01b031614156106935760405162461bcd60e51b815260206004820152602160248201527f4552433732313a20617070726f76616c20746f2063757272656e74206f776e656044820152603960f91b60648201526084016105f5565b336001600160a01b03821614806106af57506106af81336104bc565b6107215760405162461bcd60e51b815260206004820152603860248201527f4552433732313a20617070726f76652063616c6c6572206973206e6f74206f7760448201527f6e6572206e6f7220617070726f76656420666f7220616c6c000000000000000060648201526084016105f5565b61072b83836111a9565b505050565b338061073b84610ab0565b6001600160a01b0316146107a25760405162461bcd60e51b815260206004820152602860248201527f4c314552433732313a206f6e6c79206f776e65722063616e206368616e676520604482015267746f6b656e55524960c01b60648201526084016105f5565b806001600160a01b0316837f81130bcbf617906a277ff93404670d02efba947a369b24e0f8c0ce2a4c901f6f6107d7866110e5565b856040516107e6929190612f39565b60405180910390a361072b8383611217565b610803335b826112a3565b61081f5760405162461bcd60e51b81526004016105f590613007565b61072b83838361138d565b6108348282611538565b600082815260976020526040902061072b9082611152565b600061085783610b27565b82106108b95760405162461bcd60e51b815260206004820152602b60248201527f455243373231456e756d657261626c653a206f776e657220696e646578206f7560448201526a74206f6620626f756e647360a81b60648201526084016105f5565b506001600160a01b0391909116600090815261012d60209081526040808320938352929052205490565b6108ed828261155e565b600082815260976020526040902061072b90826115d8565b61091d60008051602061323e83398151915233610e2d565b61097c5760405162461bcd60e51b815260206004820152602a60248201527f4c314552433732313a206d75737420686176652070617573657220726f6c6520604482015269746f20756e706175736560b01b60648201526084016105f5565b6109846115ed565b565b61072b83838360405180602001604052806000815250610fa6565b6109aa336107fd565b610a0f5760405162461bcd60e51b815260206004820152603060248201527f4552433732314275726e61626c653a2063616c6c6572206973206e6f74206f7760448201526f1b995c881b9bdc88185c1c1c9bdd995960821b60648201526084016105f5565b610a1881611682565b50565b6000610a2761012f5490565b8210610a8a5760405162461bcd60e51b815260206004820152602c60248201527f455243373231456e756d657261626c653a20676c6f62616c20696e646578206f60448201526b7574206f6620626f756e647360a01b60648201526084016105f5565b61012f8281548110610a9e57610a9e6131fb565b90600052602060002001549050919050565b600081815260cb60205260408120546001600160a01b0316806104f55760405162461bcd60e51b815260206004820152602960248201527f4552433732313a206f776e657220717565727920666f72206e6f6e657869737460448201526832b73a103a37b5b2b760b91b60648201526084016105f5565b60006001600160a01b038216610b925760405162461bcd60e51b815260206004820152602a60248201527f4552433732313a2062616c616e636520717565727920666f7220746865207a65604482015269726f206164647265737360b01b60648201526084016105f5565b506001600160a01b0316600090815260cc602052604090205490565b610bc660008051602061325e83398151915233610e2d565b80610bd957506001600160a01b03831633145b610bf55760405162461bcd60e51b81526004016105f590613058565b6000825111610c465760405162461bcd60e51b815260206004820152601f60248201527f4c314552433732313a206d75737420737570706c79205f746f6b656e5552490060448201526064016105f5565b64e8d4a5100081118015610c605750610c5e8161118c565b155b610cd25760405162461bcd60e51b815260206004820152603e60248201527f4c314552433732313a206d75737420737570706c79206672657368206f66666360448201527f6861696e4964283e313030303030303030303030302920746f206d696e74000060648201526084016105f5565b610cdb816110e5565b5115610d3e5760405162461bcd60e51b815260206004820152602c60248201527f4c314552433732313a20737570706c696564206f6666636861696e496420616c60448201526b72656164792065786973747360a01b60648201526084016105f5565b80610d49848261168b565b610d538184611217565b836001600160a01b031682827f259eb7b480b3d449f506927269e4665c83c69e4cd797143eaa8f84632dc7a02b60405160405180910390a450505050565b610da960008051602061323e83398151915233610e2d565b610e065760405162461bcd60e51b815260206004820152602860248201527f4c314552433732313a206d75737420686176652070617573657220726f6c6520604482015267746f20706175736560c01b60648201526084016105f5565b6109846116a5565b6000828152609760205260408120610e269083611722565b9392505050565b60009182526065602090815260408084206001600160a01b0393909316845291905290205460ff1690565b606060ca805461050a9061314f565b6001600160a01b038216331415610ec05760405162461bcd60e51b815260206004820152601960248201527f4552433732313a20617070726f766520746f2063616c6c65720000000000000060448201526064016105f5565b33600081815260ce602090815260408083206001600160a01b03871680855290835292819020805460ff191686151590811790915590519081529192917f17307eab39ab6107e8899845ad3d59bd9653f200f220920489ca2b5937696c31910160405180910390a35050565b600054610100900460ff1680610f45575060005460ff16155b610f615760405162461bcd60e51b81526004016105f590612fb9565b600054610100900460ff16158015610f83576000805461ffff19166101011790555b610f8e84848461172e565b8015610fa0576000805461ff00191690555b50505050565b610fb033836112a3565b610fcc5760405162461bcd60e51b81526004016105f590613007565b610fa0848484846117d8565b610ff060008051602061325e83398151915233610e2d565b8061100357506001600160a01b03831633145b61101f5760405162461bcd60e51b81526004016105f590613058565b60008251116110705760405162461bcd60e51b815260206004820152601f60248201527f4c314552433732313a206d75737420737570706c79205f746f6b656e5552490060448201526064016105f5565b61107f6101f580546001019055565b600061108b6101f55490565b9050611097848261168b565b6110a18184611217565b8115610fa057836001600160a01b031682827f259eb7b480b3d449f506927269e4665c83c69e4cd797143eaa8f84632dc7a02b60405160405180910390a450505050565b60606104f58261180b565b60008282604051602001611105929190612e35565b60405160208183030381529060405280519060200120905092915050565b60008181526097602052604081206104f59061197b565b6108ed8282611985565b61114e82826119ab565b5050565b6000610e26836001600160a01b038416611a31565b60006001600160e01b0319821663780e9d6360e01b14806104f557506104f582611a80565b600090815260cb60205260409020546001600160a01b0316151590565b600081815260cd6020526040902080546001600160a01b0319166001600160a01b03841690811790915581906111de82610ab0565b6001600160a01b03167f8c5be1e5ebec7d5bd14f71427d1e84f3dd0314c0f7b2291e5b200ac8c7c3b92560405160405180910390a45050565b6112208261118c565b6112835760405162461bcd60e51b815260206004820152602e60248201527f45524337323155524953746f726167653a2055524920736574206f66206e6f6e60448201526d32bc34b9ba32b73a103a37b5b2b760911b60648201526084016105f5565b60008281526101c360209081526040909120825161072b928401906128ec565b60006112ae8261118c565b61130f5760405162461bcd60e51b815260206004820152602c60248201527f4552433732313a206f70657261746f7220717565727920666f72206e6f6e657860448201526b34b9ba32b73a103a37b5b2b760a11b60648201526084016105f5565b600061131a83610ab0565b9050806001600160a01b0316846001600160a01b031614806113555750836001600160a01b031661134a8461058d565b6001600160a01b0316145b8061138557506001600160a01b03808216600090815260ce602090815260408083209388168352929052205460ff165b949350505050565b826001600160a01b03166113a082610ab0565b6001600160a01b0316146114085760405162461bcd60e51b815260206004820152602960248201527f4552433732313a207472616e73666572206f6620746f6b656e2074686174206960448201526839903737ba1037bbb760b91b60648201526084016105f5565b6001600160a01b03821661146a5760405162461bcd60e51b8152602060048201526024808201527f4552433732313a207472616e7366657220746f20746865207a65726f206164646044820152637265737360e01b60648201526084016105f5565b611475838383611ac0565b6114806000826111a9565b6001600160a01b038316600090815260cc602052604081208054600192906114a99084906130f5565b90915550506001600160a01b038216600090815260cc602052604081208054600192906114d79084906130aa565b9091555050600081815260cb602052604080822080546001600160a01b0319166001600160a01b0386811691821790925591518493918716917fddf252ad1be2c89b69c2b068fc378daa952ba7f163c4a11628f55a4df523b3ef91a4505050565b6000828152606560205260409020600101546115548133611acb565b61072b83836119ab565b6001600160a01b03811633146115ce5760405162461bcd60e51b815260206004820152602f60248201527f416363657373436f6e74726f6c3a2063616e206f6e6c792072656e6f756e636560448201526e103937b632b9903337b91039b2b63360891b60648201526084016105f5565b61114e8282611b2f565b6000610e26836001600160a01b038416611b96565b61015f5460ff166116375760405162461bcd60e51b815260206004820152601460248201527314185d5cd8589b194e881b9bdd081c185d5cd95960621b60448201526064016105f5565b61015f805460ff191690557f5db9ee0a495bf2e6ff9c91a7834c1ba4fdd244a5e8aa4e537bd38aeae4b073aa335b6040516001600160a01b03909116815260200160405180910390a1565b610a1881611c89565b61114e828260405180602001604052806000815250611ccb565b61015f5460ff16156116ec5760405162461bcd60e51b815260206004820152601060248201526f14185d5cd8589b194e881c185d5cd95960821b60448201526064016105f5565b61015f805460ff191660011790557f62e78cea01bee320cd4e420270b5ea74000d11b0c9f74754ebdbfc544b05a2586116653390565b6000610e268383611cfe565b600054610100900460ff1680611747575060005460ff16155b6117635760405162461bcd60e51b81526004016105f590612fb9565b600054610100900460ff16158015611785576000805461ffff19166101011790555b61178d611d28565b611795611d28565b61179d611d28565b6117a5611d28565b6117af8484611d93565b6117b7611d28565b6117bf611d28565b6117c7611e28565b6117cf611d28565b610f8e82611e9e565b6117e384848461138d565b6117ef84848484611f5a565b610fa05760405162461bcd60e51b81526004016105f590612f67565b60606118168261118c565b61187c5760405162461bcd60e51b815260206004820152603160248201527f45524337323155524953746f726167653a2055524920717565727920666f72206044820152703737b732bc34b9ba32b73a103a37b5b2b760791b60648201526084016105f5565b60008281526101c36020526040812080546118969061314f565b80601f01602080910402602001604051908101604052809291908181526020018280546118c29061314f565b801561190f5780601f106118e45761010080835404028352916020019161190f565b820191906000526020600020905b8154815290600101906020018083116118f257829003601f168201915b50505050509050600061192d60408051602081019091526000815290565b9050805160001415611940575092915050565b81511561197257808260405160200161195a929190612e45565b60405160208183030381529060405292505050919050565b61138584612067565b60006104f5825490565b6000828152606560205260409020600101546119a18133611acb565b61072b8383611b2f565b6119b58282610e2d565b61114e5760008281526065602090815260408083206001600160a01b03851684529091529020805460ff191660011790556119ed3390565b6001600160a01b0316816001600160a01b0316837f2f8788117e7eff1d82e926ec794901d17c78024a50270940304540a733656f0d60405160405180910390a45050565b6000818152600183016020526040812054611a78575081546001818101845560008481526020808220909301849055845484825282860190935260409020919091556104f5565b5060006104f5565b60006001600160e01b031982166380ac58cd60e01b1480611ab157506001600160e01b03198216635b5e139f60e01b145b806104f557506104f58261213e565b61072b838383612163565b611ad58282610e2d565b61114e57611aed816001600160a01b031660146121d6565b611af88360206121d6565b604051602001611b09929190612e74565b60408051601f198184030181529082905262461bcd60e51b82526105f591600401612f26565b611b398282610e2d565b1561114e5760008281526065602090815260408083206001600160a01b0385168085529252808320805460ff1916905551339285917ff6391f5c32d9c69d2a47ea670b442974b53935d1edc7fd64eb21e047a839171b9190a45050565b60008181526001830160205260408120548015611c7f576000611bba6001836130f5565b8554909150600090611bce906001906130f5565b9050818114611c33576000866000018281548110611bee57611bee6131fb565b9060005260206000200154905080876000018481548110611c1157611c116131fb565b6000918252602080832090910192909255918252600188019052604090208390555b8554869080611c4457611c446131e5565b6001900381819060005260206000200160009055905585600101600086815260200190815260200160002060009055600193505050506104f5565b60009150506104f5565b611c9281612372565b60008181526101c3602052604090208054611cac9061314f565b159050610a185760008181526101c360205260408120610a1891612970565b611cd58383612419565b611ce26000848484611f5a565b61072b5760405162461bcd60e51b81526004016105f590612f67565b6000826000018281548110611d1557611d156131fb565b9060005260206000200154905092915050565b600054610100900460ff1680611d41575060005460ff16155b611d5d5760405162461bcd60e51b81526004016105f590612fb9565b600054610100900460ff16158015611d7f576000805461ffff19166101011790555b8015610a18576000805461ff001916905550565b600054610100900460ff1680611dac575060005460ff16155b611dc85760405162461bcd60e51b81526004016105f590612fb9565b600054610100900460ff16158015611dea576000805461ffff19166101011790555b8251611dfd9060c99060208601906128ec565b508151611e119060ca9060208501906128ec565b50801561072b576000805461ff0019169055505050565b600054610100900460ff1680611e41575060005460ff16155b611e5d5760405162461bcd60e51b81526004016105f590612fb9565b600054610100900460ff16158015611e7f576000805461ffff19166101011790555b61015f805460ff191690558015610a18576000805461ff001916905550565b600054610100900460ff1680611eb7575060005460ff16155b611ed35760405162461bcd60e51b81526004016105f590612fb9565b600054610100900460ff16158015611ef5576000805461ffff19166101011790555b8151611f09906101f69060208501906128ec565b50611f15600033612558565b611f2d60008051602061325e83398151915233612558565b611f4560008051602061323e83398151915233612558565b801561114e576000805461ff00191690555050565b60006001600160a01b0384163b1561205c57604051630a85bd0160e11b81526001600160a01b0385169063150b7a0290611f9e903390899088908890600401612ee9565b602060405180830381600087803b158015611fb857600080fd5b505af1925050508015611fe8575060408051601f3d908101601f19168201909252611fe591810190612cab565b60015b612042573d808015612016576040519150601f19603f3d011682016040523d82523d6000602084013e61201b565b606091505b50805161203a5760405162461bcd60e51b81526004016105f590612f67565b805181602001fd5b6001600160e01b031916630a85bd0160e11b149050611385565b506001949350505050565b60606120728261118c565b6120d65760405162461bcd60e51b815260206004820152602f60248201527f4552433732314d657461646174613a2055524920717565727920666f72206e6f60448201526e3732bc34b9ba32b73a103a37b5b2b760891b60648201526084016105f5565b60006120ed60408051602081019091526000815290565b9050600081511161210d5760405180602001604052806000815250610e26565b8061211784612562565b604051602001612128929190612e45565b6040516020818303038152906040529392505050565b60006001600160e01b03198216635a05180f60e01b14806104f557506104f582612660565b61216e838383612695565b61015f5460ff161561072b5760405162461bcd60e51b815260206004820152602b60248201527f4552433732315061757361626c653a20746f6b656e207472616e73666572207760448201526a1a1a5b19481c185d5cd95960aa1b60648201526084016105f5565b606060006121e58360026130d6565b6121f09060026130aa565b67ffffffffffffffff81111561220857612208613211565b6040519080825280601f01601f191660200182016040528015612232576020820181803683370190505b509050600360fc1b8160008151811061224d5761224d6131fb565b60200101906001600160f81b031916908160001a905350600f60fb1b8160018151811061227c5761227c6131fb565b60200101906001600160f81b031916908160001a90535060006122a08460026130d6565b6122ab9060016130aa565b90505b6001811115612323576f181899199a1a9b1b9c1cb0b131b232b360811b85600f16601081106122df576122df6131fb565b1a60f81b8282815181106122f5576122f56131fb565b60200101906001600160f81b031916908160001a90535060049490941c9361231c81613138565b90506122ae565b508315610e265760405162461bcd60e51b815260206004820181905260248201527f537472696e67733a20686578206c656e67746820696e73756666696369656e7460448201526064016105f5565b600061237d82610ab0565b905061238b81600084611ac0565b6123966000836111a9565b6001600160a01b038116600090815260cc602052604081208054600192906123bf9084906130f5565b9091555050600082815260cb602052604080822080546001600160a01b0319169055518391906001600160a01b038416907fddf252ad1be2c89b69c2b068fc378daa952ba7f163c4a11628f55a4df523b3ef908390a45050565b6001600160a01b03821661246f5760405162461bcd60e51b815260206004820181905260248201527f4552433732313a206d696e7420746f20746865207a65726f206164647265737360448201526064016105f5565b6124788161118c565b156124c55760405162461bcd60e51b815260206004820152601c60248201527f4552433732313a20746f6b656e20616c7265616479206d696e7465640000000060448201526064016105f5565b6124d160008383611ac0565b6001600160a01b038216600090815260cc602052604081208054600192906124fa9084906130aa565b9091555050600081815260cb602052604080822080546001600160a01b0319166001600160a01b03861690811790915590518392907fddf252ad1be2c89b69c2b068fc378daa952ba7f163c4a11628f55a4df523b3ef908290a45050565b6108348282611144565b6060816125865750506040805180820190915260018152600360fc1b602082015290565b8160005b81156125b0578061259a8161318a565b91506125a99050600a836130c2565b915061258a565b60008167ffffffffffffffff8111156125cb576125cb613211565b6040519080825280601f01601f1916602001820160405280156125f5576020820181803683370190505b5090505b84156113855761260a6001836130f5565b9150612617600a866131a5565b6126229060306130aa565b60f81b818381518110612637576126376131fb565b60200101906001600160f81b031916908160001a905350612659600a866130c2565b94506125f9565b60006001600160e01b03198216637965db0b60e01b14806104f557506301ffc9a760e01b6001600160e01b03198316146104f5565b6001600160a01b0383166126f2576126ed8161012f8054600083815261013060205260408120829055600182018355919091527f232da9e50dad2971456a78fb5cd6ff6b75019984d6e918139ce990999420f9790155565b612715565b816001600160a01b0316836001600160a01b03161461271557612715838261274f565b6001600160a01b03821661272c5761072b816127f1565b826001600160a01b0316826001600160a01b03161461072b5761072b82826128a6565b6000600161275c84610b27565b61276691906130f5565b600083815261012e60205260409020549091508082146127bc576001600160a01b038416600090815261012d60209081526040808320858452825280832054848452818420819055835261012e90915290208190555b50600091825261012e602090815260408084208490556001600160a01b03909416835261012d81528383209183525290812055565b61012f54600090612804906001906130f5565b6000838152610130602052604081205461012f805493945090928490811061282e5761282e6131fb565b906000526020600020015490508061012f8381548110612850576128506131fb565b6000918252602080832090910192909255828152610130909152604080822084905585825281205561012f80548061288a5761288a6131e5565b6001900381819060005260206000200160009055905550505050565b60006128b183610b27565b6001600160a01b03909316600090815261012d60209081526040808320868452825280832085905593825261012e9052919091209190915550565b8280546128f89061314f565b90600052602060002090601f01602090048101928261291a5760008555612960565b82601f1061293357805160ff1916838001178555612960565b82800160010185558215612960579182015b82811115612960578251825591602001919060010190612945565b5061296c9291506129a6565b5090565b50805461297c9061314f565b6000825580601f1061298c575050565b601f016020900490600052602060002090810190610a1891905b5b8082111561296c57600081556001016129a7565b600067ffffffffffffffff808411156129d6576129d6613211565b604051601f8501601f19908116603f011681019082821181831017156129fe576129fe613211565b81604052809350858152868686011115612a1757600080fd5b858560208301376000602087830101525050509392505050565b80356001600160a01b0381168114612a4857600080fd5b919050565b600082601f830112612a5e57600080fd5b610e26838335602085016129bb565b600060208284031215612a7f57600080fd5b610e2682612a31565b60008060408385031215612a9b57600080fd5b612aa483612a31565b9150612ab260208401612a31565b90509250929050565b600080600060608486031215612ad057600080fd5b612ad984612a31565b9250612ae760208501612a31565b9150604084013590509250925092565b60008060008060808587031215612b0d57600080fd5b612b1685612a31565b9350612b2460208601612a31565b925060408501359150606085013567ffffffffffffffff811115612b4757600080fd5b8501601f81018713612b5857600080fd5b612b67878235602084016129bb565b91505092959194509250565b60008060408385031215612b8657600080fd5b612b8f83612a31565b915060208301358015158114612ba457600080fd5b809150509250929050565b600080600060608486031215612bc457600080fd5b612bcd84612a31565b9250602084013567ffffffffffffffff811115612be957600080fd5b612bf586828701612a4d565b925050604084013590509250925092565b60008060408385031215612c1957600080fd5b612c2283612a31565b946020939093013593505050565b600060208284031215612c4257600080fd5b5035919050565b60008060408385031215612c5c57600080fd5b82359150612ab260208401612a31565b60008060408385031215612c7f57600080fd5b50508035926020909101359150565b600060208284031215612ca057600080fd5b8135610e2681613227565b600060208284031215612cbd57600080fd5b8151610e2681613227565b60008060208385031215612cdb57600080fd5b823567ffffffffffffffff80821115612cf357600080fd5b818501915085601f830112612d0757600080fd5b813581811115612d1657600080fd5b866020828501011115612d2857600080fd5b60209290920196919550909350505050565b600080600060608486031215612d4f57600080fd5b833567ffffffffffffffff80821115612d6757600080fd5b612d7387838801612a4d565b94506020860135915080821115612d8957600080fd5b612d9587838801612a4d565b93506040860135915080821115612dab57600080fd5b50612db886828701612a4d565b9150509250925092565b60008060408385031215612dd557600080fd5b82359150602083013567ffffffffffffffff811115612df357600080fd5b612dff85828601612a4d565b9150509250929050565b60008151808452612e2181602086016020860161310c565b601f01601f19169290920160200192915050565b8183823760009101908152919050565b60008351612e5781846020880161310c565b835190830190612e6b81836020880161310c565b01949350505050565b7f416363657373436f6e74726f6c3a206163636f756e7420000000000000000000815260008351612eac81601785016020880161310c565b7001034b99036b4b9b9b4b733903937b6329607d1b6017918401918201528351612edd81602884016020880161310c565b01602801949350505050565b6001600160a01b0385811682528416602082015260408101839052608060608201819052600090612f1c90830184612e09565b9695505050505050565b602081526000610e266020830184612e09565b604081526000612f4c6040830185612e09565b8281036020840152612f5e8185612e09565b95945050505050565b60208082526032908201527f4552433732313a207472616e7366657220746f206e6f6e20455243373231526560408201527131b2b4bb32b91034b6b83632b6b2b73a32b960711b606082015260800190565b6020808252602e908201527f496e697469616c697a61626c653a20636f6e747261637420697320616c72656160408201526d191e481a5b9a5d1a585b1a5e995960921b606082015260800190565b60208082526031908201527f4552433732313a207472616e736665722063616c6c6572206973206e6f74206f6040820152701ddb995c881b9bdc88185c1c1c9bdd9959607a1b606082015260800190565b60208082526032908201527f4c314552433732313a206d7573742068617665206d696e74657220726f6c6520604082015271746f206d696e7420666f72206f746865727360701b606082015260800190565b600082198211156130bd576130bd6131b9565b500190565b6000826130d1576130d16131cf565b500490565b60008160001904831182151516156130f0576130f06131b9565b500290565b600082821015613107576131076131b9565b500390565b60005b8381101561312757818101518382015260200161310f565b83811115610fa05750506000910152565b600081613147576131476131b9565b506000190190565b600181811c9082168061316357607f821691505b6020821081141561318457634e487b7160e01b600052602260045260246000fd5b50919050565b600060001982141561319e5761319e6131b9565b5060010190565b6000826131b4576131b46131cf565b500690565b634e487b7160e01b600052601160045260246000fd5b634e487b7160e01b600052601260045260246000fd5b634e487b7160e01b600052603160045260246000fd5b634e487b7160e01b600052603260045260246000fd5b634e487b7160e01b600052604160045260246000fd5b6001600160e01b031981168114610a1857600080fdfe65d7a28e3265b37a6474929f336521b332c1681b933f6cb9f3376673440d862a9f2df0fed2c77648de5860a4cc508cd0818c85b8b8a1ab4ceeef8d981c8956a6a2646970667358221220a3bc5109fa04568e909d4764005147896430150e0dc37573ade4e1187b15a70a64736f6c63430008070033",
    "sourcePath": "d:/OAS/oas-api/oas/misc/OASERC721.sol",
    "compiler": {
        "name": "solc",
        "version": "0.8.7+commit.e28d00a7"
    },
    "functionHashes": {
        "DEFAULT_ADMIN_ROLE()": "a217fddf",
        "MINTER_ROLE()": "d5391393",
        "PAUSER_ROLE()": "e63ab1e9",
        "approve(address,uint256)": "095ea7b3",
        "balanceOf(address)": "70a08231",
        "burn(uint256)": "42966c68",
        "getApproved(uint256)": "081812fc",
        "getRoleAdmin(bytes32)": "248a9ca3",
        "getRoleMember(bytes32,uint256)": "9010d07c",
        "getRoleMemberCount(bytes32)": "ca15c873",
        "grantRole(bytes32,address)": "2f2ff15d",
        "hasRole(bytes32,address)": "91d14854",
        "initialize(string,string,string)": "a6487c53",
        "isApprovedForAll(address,address)": "e985e9c5",
        "makeOffchainId(string)": "c9b0aeba",
        "mint(address,string,uint256)": "ba7aef43",
        "mintWith(address,string,uint256)": "81b27aea",
        "name()": "06fdde03",
        "ownerOf(uint256)": "6352211e",
        "pause()": "8456cb59",
        "paused()": "5c975abb",
        "renounceRole(bytes32,address)": "36568abe",
        "revokeRole(bytes32,address)": "d547741f",
        "safeTransferFrom(address,address,uint256)": "42842e0e",
        "safeTransferFrom(address,address,uint256,bytes)": "b88d4fde",
        "setApprovalForAll(address,bool)": "a22cb465",
        "setTokenURI(uint256,string)": "162094c4",
        "supportsInterface(bytes4)": "01ffc9a7",
        "symbol()": "95d89b41",
        "tokenByIndex(uint256)": "4f6ccce7",
        "tokenOfOwnerByIndex(address,uint256)": "2f745c59",
        "tokenURI(uint256)": "c87b56dd",
        "totalSupply()": "18160ddd",
        "transferFrom(address,address,uint256)": "23b872dd",
        "unpause()": "3f4ba83a"
    },
    "gasEstimates": {
        "creation": {
            "codeDepositCost": "2595800",
            "executionCost": "infinite",
            "totalCost": "infinite"
        },
        "external": {
            "DEFAULT_ADMIN_ROLE()": "284",
            "MINTER_ROLE()": "infinite",
            "PAUSER_ROLE()": "infinite",
            "approve(address,uint256)": "infinite",
            "balanceOf(address)": "2635",
            "burn(uint256)": "infinite",
            "getApproved(uint256)": "4822",
            "getRoleAdmin(bytes32)": "2556",
            "getRoleMember(bytes32,uint256)": "infinite",
            "getRoleMemberCount(bytes32)": "infinite",
            "grantRole(bytes32,address)": "infinite",
            "hasRole(bytes32,address)": "2699",
            "initialize(string,string,string)": "infinite",
            "isApprovedForAll(address,address)": "infinite",
            "makeOffchainId(string)": "infinite",
            "mint(address,string,uint256)": "infinite",
            "mintWith(address,string,uint256)": "infinite",
            "name()": "infinite",
            "ownerOf(uint256)": "2689",
            "pause()": "infinite",
            "paused()": "2404",
            "renounceRole(bytes32,address)": "infinite",
            "revokeRole(bytes32,address)": "infinite",
            "safeTransferFrom(address,address,uint256)": "infinite",
            "safeTransferFrom(address,address,uint256,bytes)": "infinite",
            "setApprovalForAll(address,bool)": "26739",
            "setTokenURI(uint256,string)": "infinite",
            "supportsInterface(bytes4)": "infinite",
            "symbol()": "infinite",
            "tokenByIndex(uint256)": "6804",
            "tokenOfOwnerByIndex(address,uint256)": "4998",
            "tokenURI(uint256)": "infinite",
            "totalSupply()": "2349",
            "transferFrom(address,address,uint256)": "infinite",
            "unpause()": "infinite"
        },
        "internal": {
            "__ERC721PresetMinterPauserAutoId_init(string memory,string memory,string memory)": "infinite",
            "__ERC721PresetMinterPauserAutoId_init_unchained(string memory)": "infinite",
            "_beforeTokenTransfer(address,address,uint256)": "infinite",
            "_burn(uint256)": "infinite"
        }
    }
}