{
    "contractName": "L1ERC721V1",
    "abi": [
        {
            "anonymous": false,
            "inputs": [
                {
                    "indexed": false,
                    "internalType": "address",
                    "name": "previousAdmin",
                    "type": "address"
                },
                {
                    "indexed": false,
                    "internalType": "address",
                    "name": "newAdmin",
                    "type": "address"
                }
            ],
            "name": "AdminChanged",
            "type": "event"
        },
        {
            "anonymous": false,
            "inputs": [
                {
                    "indexed": true,
                    "internalType": "address",
                    "name": "owner",
                    "type": "address"
                },
                {
                    "indexed": true,
                    "internalType": "address",
                    "name": "approved",
                    "type": "address"
                },
                {
                    "indexed": true,
                    "internalType": "uint256",
                    "name": "tokenId",
                    "type": "uint256"
                }
            ],
            "name": "Approval",
            "type": "event"
        },
        {
            "anonymous": false,
            "inputs": [
                {
                    "indexed": true,
                    "internalType": "address",
                    "name": "owner",
                    "type": "address"
                },
                {
                    "indexed": true,
                    "internalType": "address",
                    "name": "operator",
                    "type": "address"
                },
                {
                    "indexed": false,
                    "internalType": "bool",
                    "name": "approved",
                    "type": "bool"
                }
            ],
            "name": "ApprovalForAll",
            "type": "event"
        },
        {
            "anonymous": false,
            "inputs": [
                {
                    "indexed": true,
                    "internalType": "address",
                    "name": "beacon",
                    "type": "address"
                }
            ],
            "name": "BeaconUpgraded",
            "type": "event"
        },
        {
            "anonymous": false,
            "inputs": [
                {
                    "indexed": true,
                    "internalType": "uint256",
                    "name": "tokenId",
                    "type": "uint256"
                },
                {
                    "indexed": true,
                    "internalType": "uint256",
                    "name": "offchainId",
                    "type": "uint256"
                },
                {
                    "indexed": true,
                    "internalType": "address",
                    "name": "to",
                    "type": "address"
                }
            ],
            "name": "Minted",
            "type": "event"
        },
        {
            "anonymous": false,
            "inputs": [
                {
                    "indexed": false,
                    "internalType": "address",
                    "name": "account",
                    "type": "address"
                }
            ],
            "name": "Paused",
            "type": "event"
        },
        {
            "anonymous": false,
            "inputs": [
                {
                    "indexed": true,
                    "internalType": "bytes32",
                    "name": "role",
                    "type": "bytes32"
                },
                {
                    "indexed": true,
                    "internalType": "bytes32",
                    "name": "previousAdminRole",
                    "type": "bytes32"
                },
                {
                    "indexed": true,
                    "internalType": "bytes32",
                    "name": "newAdminRole",
                    "type": "bytes32"
                }
            ],
            "name": "RoleAdminChanged",
            "type": "event"
        },
        {
            "anonymous": false,
            "inputs": [
                {
                    "indexed": true,
                    "internalType": "bytes32",
                    "name": "role",
                    "type": "bytes32"
                },
                {
                    "indexed": true,
                    "internalType": "address",
                    "name": "account",
                    "type": "address"
                },
                {
                    "indexed": true,
                    "internalType": "address",
                    "name": "sender",
                    "type": "address"
                }
            ],
            "name": "RoleGranted",
            "type": "event"
        },
        {
            "anonymous": false,
            "inputs": [
                {
                    "indexed": true,
                    "internalType": "bytes32",
                    "name": "role",
                    "type": "bytes32"
                },
                {
                    "indexed": true,
                    "internalType": "address",
                    "name": "account",
                    "type": "address"
                },
                {
                    "indexed": true,
                    "internalType": "address",
                    "name": "sender",
                    "type": "address"
                }
            ],
            "name": "RoleRevoked",
            "type": "event"
        },
        {
            "anonymous": false,
            "inputs": [
                {
                    "indexed": true,
                    "internalType": "uint256",
                    "name": "tokenId",
                    "type": "uint256"
                },
                {
                    "indexed": true,
                    "internalType": "address",
                    "name": "owner",
                    "type": "address"
                },
                {
                    "indexed": false,
                    "internalType": "string",
                    "name": "oldTokenURI",
                    "type": "string"
                },
                {
                    "indexed": false,
                    "internalType": "string",
                    "name": "tokenURI",
                    "type": "string"
                }
            ],
            "name": "SetTokenURI",
            "type": "event"
        },
        {
            "anonymous": false,
            "inputs": [
                {
                    "indexed": true,
                    "internalType": "address",
                    "name": "from",
                    "type": "address"
                },
                {
                    "indexed": true,
                    "internalType": "address",
                    "name": "to",
                    "type": "address"
                },
                {
                    "indexed": true,
                    "internalType": "uint256",
                    "name": "tokenId",
                    "type": "uint256"
                }
            ],
            "name": "Transfer",
            "type": "event"
        },
        {
            "anonymous": false,
            "inputs": [
                {
                    "indexed": false,
                    "internalType": "address",
                    "name": "account",
                    "type": "address"
                }
            ],
            "name": "Unpaused",
            "type": "event"
        },
        {
            "anonymous": false,
            "inputs": [
                {
                    "indexed": true,
                    "internalType": "address",
                    "name": "implementation",
                    "type": "address"
                }
            ],
            "name": "Upgraded",
            "type": "event"
        },
        {
            "inputs": [],
            "name": "DEFAULT_ADMIN_ROLE",
            "outputs": [
                {
                    "internalType": "bytes32",
                    "name": "",
                    "type": "bytes32"
                }
            ],
            "stateMutability": "view",
            "type": "function"
        },
        {
            "inputs": [],
            "name": "MINTER_ROLE",
            "outputs": [
                {
                    "internalType": "bytes32",
                    "name": "",
                    "type": "bytes32"
                }
            ],
            "stateMutability": "view",
            "type": "function"
        },
        {
            "inputs": [],
            "name": "PAUSER_ROLE",
            "outputs": [
                {
                    "internalType": "bytes32",
                    "name": "",
                    "type": "bytes32"
                }
            ],
            "stateMutability": "view",
            "type": "function"
        },
        {
            "inputs": [],
            "name": "UPGRADE_ROLE",
            "outputs": [
                {
                    "internalType": "bytes32",
                    "name": "",
                    "type": "bytes32"
                }
            ],
            "stateMutability": "view",
            "type": "function"
        },
        {
            "inputs": [
                {
                    "internalType": "address",
                    "name": "to",
                    "type": "address"
                },
                {
                    "internalType": "uint256",
                    "name": "tokenId",
                    "type": "uint256"
                }
            ],
            "name": "approve",
            "outputs": [],
            "stateMutability": "nonpayable",
            "type": "function"
        },
        {
            "inputs": [
                {
                    "internalType": "address",
                    "name": "owner",
                    "type": "address"
                }
            ],
            "name": "balanceOf",
            "outputs": [
                {
                    "internalType": "uint256",
                    "name": "",
                    "type": "uint256"
                }
            ],
            "stateMutability": "view",
            "type": "function"
        },
        {
            "inputs": [
                {
                    "internalType": "uint256",
                    "name": "tokenId",
                    "type": "uint256"
                }
            ],
            "name": "burn",
            "outputs": [],
            "stateMutability": "nonpayable",
            "type": "function"
        },
        {
            "inputs": [
                {
                    "internalType": "uint256",
                    "name": "tokenId",
                    "type": "uint256"
                }
            ],
            "name": "getApproved",
            "outputs": [
                {
                    "internalType": "address",
                    "name": "",
                    "type": "address"
                }
            ],
            "stateMutability": "view",
            "type": "function"
        },
        {
            "inputs": [
                {
                    "internalType": "bytes32",
                    "name": "role",
                    "type": "bytes32"
                }
            ],
            "name": "getRoleAdmin",
            "outputs": [
                {
                    "internalType": "bytes32",
                    "name": "",
                    "type": "bytes32"
                }
            ],
            "stateMutability": "view",
            "type": "function"
        },
        {
            "inputs": [
                {
                    "internalType": "bytes32",
                    "name": "role",
                    "type": "bytes32"
                },
                {
                    "internalType": "uint256",
                    "name": "index",
                    "type": "uint256"
                }
            ],
            "name": "getRoleMember",
            "outputs": [
                {
                    "internalType": "address",
                    "name": "",
                    "type": "address"
                }
            ],
            "stateMutability": "view",
            "type": "function"
        },
        {
            "inputs": [
                {
                    "internalType": "bytes32",
                    "name": "role",
                    "type": "bytes32"
                }
            ],
            "name": "getRoleMemberCount",
            "outputs": [
                {
                    "internalType": "uint256",
                    "name": "",
                    "type": "uint256"
                }
            ],
            "stateMutability": "view",
            "type": "function"
        },
        {
            "inputs": [
                {
                    "internalType": "bytes32",
                    "name": "role",
                    "type": "bytes32"
                },
                {
                    "internalType": "address",
                    "name": "account",
                    "type": "address"
                }
            ],
            "name": "grantRole",
            "outputs": [],
            "stateMutability": "nonpayable",
            "type": "function"
        },
        {
            "inputs": [
                {
                    "internalType": "bytes32",
                    "name": "role",
                    "type": "bytes32"
                },
                {
                    "internalType": "address",
                    "name": "account",
                    "type": "address"
                }
            ],
            "name": "hasRole",
            "outputs": [
                {
                    "internalType": "bool",
                    "name": "",
                    "type": "bool"
                }
            ],
            "stateMutability": "view",
            "type": "function"
        },
        {
            "inputs": [
                {
                    "internalType": "string",
                    "name": "name",
                    "type": "string"
                },
                {
                    "internalType": "string",
                    "name": "symbol",
                    "type": "string"
                },
                {
                    "internalType": "string",
                    "name": "baseTokenURI",
                    "type": "string"
                }
            ],
            "name": "initialize",
            "outputs": [],
            "stateMutability": "nonpayable",
            "type": "function"
        },
        {
            "inputs": [
                {
                    "internalType": "address",
                    "name": "owner",
                    "type": "address"
                },
                {
                    "internalType": "address",
                    "name": "operator",
                    "type": "address"
                }
            ],
            "name": "isApprovedForAll",
            "outputs": [
                {
                    "internalType": "bool",
                    "name": "",
                    "type": "bool"
                }
            ],
            "stateMutability": "view",
            "type": "function"
        },
        {
            "inputs": [
                {
                    "internalType": "string",
                    "name": "offchainRef",
                    "type": "string"
                }
            ],
            "name": "makeOffchainId",
            "outputs": [
                {
                    "internalType": "bytes32",
                    "name": "",
                    "type": "bytes32"
                }
            ],
            "stateMutability": "pure",
            "type": "function"
        },
        {
            "inputs": [
                {
                    "internalType": "address",
                    "name": "to",
                    "type": "address"
                },
                {
                    "internalType": "string",
                    "name": "_tokenURI",
                    "type": "string"
                },
                {
                    "internalType": "uint256",
                    "name": "offchainId",
                    "type": "uint256"
                }
            ],
            "name": "mint",
            "outputs": [],
            "stateMutability": "nonpayable",
            "type": "function"
        },
        {
            "inputs": [
                {
                    "internalType": "address",
                    "name": "to",
                    "type": "address"
                },
                {
                    "internalType": "string",
                    "name": "_tokenURI",
                    "type": "string"
                },
                {
                    "internalType": "uint256",
                    "name": "offchainId",
                    "type": "uint256"
                }
            ],
            "name": "mintWith",
            "outputs": [],
            "stateMutability": "nonpayable",
            "type": "function"
        },
        {
            "inputs": [],
            "name": "name",
            "outputs": [
                {
                    "internalType": "string",
                    "name": "",
                    "type": "string"
                }
            ],
            "stateMutability": "view",
            "type": "function"
        },
        {
            "inputs": [
                {
                    "internalType": "uint256",
                    "name": "tokenId",
                    "type": "uint256"
                }
            ],
            "name": "ownerOf",
            "outputs": [
                {
                    "internalType": "address",
                    "name": "",
                    "type": "address"
                }
            ],
            "stateMutability": "view",
            "type": "function"
        },
        {
            "inputs": [],
            "name": "pause",
            "outputs": [],
            "stateMutability": "nonpayable",
            "type": "function"
        },
        {
            "inputs": [],
            "name": "paused",
            "outputs": [
                {
                    "internalType": "bool",
                    "name": "",
                    "type": "bool"
                }
            ],
            "stateMutability": "view",
            "type": "function"
        },
        {
            "inputs": [
                {
                    "internalType": "bytes32",
                    "name": "role",
                    "type": "bytes32"
                },
                {
                    "internalType": "address",
                    "name": "account",
                    "type": "address"
                }
            ],
            "name": "renounceRole",
            "outputs": [],
            "stateMutability": "nonpayable",
            "type": "function"
        },
        {
            "inputs": [
                {
                    "internalType": "bytes32",
                    "name": "role",
                    "type": "bytes32"
                },
                {
                    "internalType": "address",
                    "name": "account",
                    "type": "address"
                }
            ],
            "name": "revokeRole",
            "outputs": [],
            "stateMutability": "nonpayable",
            "type": "function"
        },
        {
            "inputs": [
                {
                    "internalType": "address",
                    "name": "from",
                    "type": "address"
                },
                {
                    "internalType": "address",
                    "name": "to",
                    "type": "address"
                },
                {
                    "internalType": "uint256",
                    "name": "tokenId",
                    "type": "uint256"
                }
            ],
            "name": "safeTransferFrom",
            "outputs": [],
            "stateMutability": "nonpayable",
            "type": "function"
        },
        {
            "inputs": [
                {
                    "internalType": "address",
                    "name": "from",
                    "type": "address"
                },
                {
                    "internalType": "address",
                    "name": "to",
                    "type": "address"
                },
                {
                    "internalType": "uint256",
                    "name": "tokenId",
                    "type": "uint256"
                },
                {
                    "internalType": "bytes",
                    "name": "_data",
                    "type": "bytes"
                }
            ],
            "name": "safeTransferFrom",
            "outputs": [],
            "stateMutability": "nonpayable",
            "type": "function"
        },
        {
            "inputs": [
                {
                    "internalType": "address",
                    "name": "operator",
                    "type": "address"
                },
                {
                    "internalType": "bool",
                    "name": "approved",
                    "type": "bool"
                }
            ],
            "name": "setApprovalForAll",
            "outputs": [],
            "stateMutability": "nonpayable",
            "type": "function"
        },
        {
            "inputs": [
                {
                    "internalType": "uint256",
                    "name": "tokenId",
                    "type": "uint256"
                },
                {
                    "internalType": "string",
                    "name": "newTokenURI",
                    "type": "string"
                }
            ],
            "name": "setTokenURI",
            "outputs": [],
            "stateMutability": "nonpayable",
            "type": "function"
        },
        {
            "inputs": [
                {
                    "internalType": "bytes4",
                    "name": "interfaceId",
                    "type": "bytes4"
                }
            ],
            "name": "supportsInterface",
            "outputs": [
                {
                    "internalType": "bool",
                    "name": "",
                    "type": "bool"
                }
            ],
            "stateMutability": "view",
            "type": "function"
        },
        {
            "inputs": [],
            "name": "symbol",
            "outputs": [
                {
                    "internalType": "string",
                    "name": "",
                    "type": "string"
                }
            ],
            "stateMutability": "view",
            "type": "function"
        },
        {
            "inputs": [
                {
                    "internalType": "uint256",
                    "name": "index",
                    "type": "uint256"
                }
            ],
            "name": "tokenByIndex",
            "outputs": [
                {
                    "internalType": "uint256",
                    "name": "",
                    "type": "uint256"
                }
            ],
            "stateMutability": "view",
            "type": "function"
        },
        {
            "inputs": [
                {
                    "internalType": "address",
                    "name": "owner",
                    "type": "address"
                },
                {
                    "internalType": "uint256",
                    "name": "index",
                    "type": "uint256"
                }
            ],
            "name": "tokenOfOwnerByIndex",
            "outputs": [
                {
                    "internalType": "uint256",
                    "name": "",
                    "type": "uint256"
                }
            ],
            "stateMutability": "view",
            "type": "function"
        },
        {
            "inputs": [
                {
                    "internalType": "uint256",
                    "name": "tokenId",
                    "type": "uint256"
                }
            ],
            "name": "tokenURI",
            "outputs": [
                {
                    "internalType": "string",
                    "name": "",
                    "type": "string"
                }
            ],
            "stateMutability": "view",
            "type": "function"
        },
        {
            "inputs": [],
            "name": "totalSupply",
            "outputs": [
                {
                    "internalType": "uint256",
                    "name": "",
                    "type": "uint256"
                }
            ],
            "stateMutability": "view",
            "type": "function"
        },
        {
            "inputs": [
                {
                    "internalType": "address",
                    "name": "from",
                    "type": "address"
                },
                {
                    "internalType": "address",
                    "name": "to",
                    "type": "address"
                },
                {
                    "internalType": "uint256",
                    "name": "tokenId",
                    "type": "uint256"
                }
            ],
            "name": "transferFrom",
            "outputs": [],
            "stateMutability": "nonpayable",
            "type": "function"
        },
        {
            "inputs": [],
            "name": "unpause",
            "outputs": [],
            "stateMutability": "nonpayable",
            "type": "function"
        },
        {
            "inputs": [
                {
                    "internalType": "address",
                    "name": "newImplementation",
                    "type": "address"
                }
            ],
            "name": "upgradeTo",
            "outputs": [],
            "stateMutability": "nonpayable",
            "type": "function"
        },
        {
            "inputs": [
                {
                    "internalType": "address",
                    "name": "newImplementation",
                    "type": "address"
                },
                {
                    "internalType": "bytes",
                    "name": "data",
                    "type": "bytes"
                }
            ],
            "name": "upgradeToAndCall",
            "outputs": [],
            "stateMutability": "payable",
            "type": "function"
        }
    ],
    "bytecode": "608060405234801561001057600080fd5b506139ab806100206000396000f3fe6080604052600436106102255760003560e01c806370a0823111610123578063b88d4fde116100ab578063ca15c8731161006f578063ca15c8731461065f578063d53913931461067f578063d547741f146106a1578063e63ab1e9146106c1578063e985e9c5146106e357600080fd5b8063b88d4fde146105ab578063b908afa8146105cb578063ba7aef43146105ff578063c87b56dd1461061f578063c9b0aeba1461063f57600080fd5b806391d14854116100f257806391d148541461052157806395d89b4114610541578063a217fddf14610556578063a22cb4651461056b578063a6487c531461058b57600080fd5b806370a08231146104ac57806381b27aea146104cc5780638456cb59146104ec5780639010d07c1461050157600080fd5b80632f745c59116101b157806342966c681161017557806342966c68146104205780634f1ef286146104405780634f6ccce7146104535780635c975abb146104735780636352211e1461048c57600080fd5b80632f745c591461038b57806336568abe146103ab5780633659cfe6146103cb5780633f4ba83a146103eb57806342842e0e1461040057600080fd5b8063162094c4116101f8578063162094c4146102db57806318160ddd146102fb57806323b872dd1461031b578063248a9ca31461033b5780632f2ff15d1461036b57600080fd5b806301ffc9a71461022a57806306fdde031461025f578063081812fc14610281578063095ea7b3146102b9575b600080fd5b34801561023657600080fd5b5061024a61024536600461331f565b61072c565b60405190151581526020015b60405180910390f35b34801561026b57600080fd5b5061027461073d565b60405161025691906135bd565b34801561028d57600080fd5b506102a161029c3660046132c1565b6107cf565b6040516001600160a01b039091168152602001610256565b3480156102c557600080fd5b506102d96102d4366004613297565b61085c565b005b3480156102e757600080fd5b506102d96102f6366004613453565b610972565b34801561030757600080fd5b5061012f545b604051908152602001610256565b34801561032757600080fd5b506102d9610336366004613112565b610a3c565b34801561034757600080fd5b5061030d6103563660046132c1565b60009081526065602052604090206001015490565b34801561037757600080fd5b506102d96103863660046132da565b610a6e565b34801561039757600080fd5b5061030d6103a6366004613297565b610a90565b3480156103b757600080fd5b506102d96103c63660046132da565b610b27565b3480156103d757600080fd5b506102d96103e63660046130c4565b610b49565b3480156103f757600080fd5b506102d9610b70565b34801561040c57600080fd5b506102d961041b366004613112565b610bf3565b34801561042c57600080fd5b506102d961043b3660046132c1565b610c0e565b6102d961044e3660046131f2565b610c85565b34801561045f57600080fd5b5061030d61046e3660046132c1565b610c9e565b34801561047f57600080fd5b5061015f5460ff1661024a565b34801561049857600080fd5b506102a16104a73660046132c1565b610d33565b3480156104b857600080fd5b5061030d6104c73660046130c4565b610daa565b3480156104d857600080fd5b506102d96104e7366004613240565b610e31565b3480156104f857600080fd5b506102d9610fe8565b34801561050d57600080fd5b506102a161051c3660046132fd565b611067565b34801561052d57600080fd5b5061024a61053c3660046132da565b611086565b34801561054d57600080fd5b506102746110b1565b34801561056257600080fd5b5061030d600081565b34801561057757600080fd5b506102d96105863660046131b6565b6110c0565b34801561059757600080fd5b506102d96105a63660046133cb565b611185565b3480156105b757600080fd5b506102d96105c636600461314e565b6111ff565b3480156105d757600080fd5b5061030d7f88aa719609f728b0c5e7fb8dd3608d5c25d497efbb3b9dd64e9251ebba10150881565b34801561060b57600080fd5b506102d961061a366004613240565b611231565b34801561062b57600080fd5b5061027461063a3660046132c1565b61130e565b34801561064b57600080fd5b5061030d61065a366004613359565b611319565b34801561066b57600080fd5b5061030d61067a3660046132c1565b61134c565b34801561068b57600080fd5b5061030d60008051602061395683398151915281565b3480156106ad57600080fd5b506102d96106bc3660046132da565b611363565b3480156106cd57600080fd5b5061030d60008051602061390f83398151915281565b3480156106ef57600080fd5b5061024a6106fe3660046130df565b6001600160a01b03918216600090815260ce6020908152604080832093909416825291909152205460ff1690565b60006107378261136d565b92915050565b606060c9805461074c90613820565b80601f016020809104026020016040519081016040528092919081815260200182805461077890613820565b80156107c55780601f1061079a576101008083540402835291602001916107c5565b820191906000526020600020905b8154815290600101906020018083116107a857829003601f168201915b5050505050905090565b60006107da82611392565b6108405760405162461bcd60e51b815260206004820152602c60248201527f4552433732313a20617070726f76656420717565727920666f72206e6f6e657860448201526b34b9ba32b73a103a37b5b2b760a11b60648201526084015b60405180910390fd5b50600090815260cd60205260409020546001600160a01b031690565b600061086782610d33565b9050806001600160a01b0316836001600160a01b031614156108d55760405162461bcd60e51b815260206004820152602160248201527f4552433732313a20617070726f76616c20746f2063757272656e74206f776e656044820152603960f91b6064820152608401610837565b336001600160a01b03821614806108f157506108f181336106fe565b6109635760405162461bcd60e51b815260206004820152603860248201527f4552433732313a20617070726f76652063616c6c6572206973206e6f74206f7760448201527f6e6572206e6f7220617070726f76656420666f7220616c6c00000000000000006064820152608401610837565b61096d83836113af565b505050565b338061097d84610d33565b6001600160a01b0316146109e65760405162461bcd60e51b815260206004820152602a60248201527f4c3145524337323156313a206f6e6c79206f776e65722063616e206368616e676044820152696520746f6b656e55524960b01b6064820152608401610837565b806001600160a01b0316837f81130bcbf617906a277ff93404670d02efba947a369b24e0f8c0ce2a4c901f6f610a1b8661130e565b85604051610a2a9291906135d0565b60405180910390a361096d838361141d565b610a47335b826114a9565b610a635760405162461bcd60e51b81526004016108379061372a565b61096d838383611593565b610a78828261173e565b600082815260976020526040902061096d9082611764565b6000610a9b83610daa565b8210610afd5760405162461bcd60e51b815260206004820152602b60248201527f455243373231456e756d657261626c653a206f776e657220696e646578206f7560448201526a74206f6620626f756e647360a81b6064820152608401610837565b506001600160a01b0391909116600090815261012d60209081526040808320938352929052205490565b610b318282611779565b600082815260976020526040902061096d90826117f3565b610b5281611808565b610b6d8160405180602001604052806000815250600061189d565b50565b610b8860008051602061390f83398151915233611086565b610be95760405162461bcd60e51b815260206004820152602c60248201527f4c3145524337323156313a206d75737420686176652070617573657220726f6c60448201526b6520746f20756e706175736560a01b6064820152608401610837565b610bf1611a25565b565b61096d838383604051806020016040528060008152506111ff565b610c1733610a41565b610c7c5760405162461bcd60e51b815260206004820152603060248201527f4552433732314275726e61626c653a2063616c6c6572206973206e6f74206f7760448201526f1b995c881b9bdc88185c1c1c9bdd995960821b6064820152608401610837565b610b6d81611aba565b610c8e82611808565b610c9a8282600161189d565b5050565b6000610caa61012f5490565b8210610d0d5760405162461bcd60e51b815260206004820152602c60248201527f455243373231456e756d657261626c653a20676c6f62616c20696e646578206f60448201526b7574206f6620626f756e647360a01b6064820152608401610837565b61012f8281548110610d2157610d216138cc565b90600052602060002001549050919050565b600081815260cb60205260408120546001600160a01b0316806107375760405162461bcd60e51b815260206004820152602960248201527f4552433732313a206f776e657220717565727920666f72206e6f6e657869737460448201526832b73a103a37b5b2b760b91b6064820152608401610837565b60006001600160a01b038216610e155760405162461bcd60e51b815260206004820152602a60248201527f4552433732313a2062616c616e636520717565727920666f7220746865207a65604482015269726f206164647265737360b01b6064820152608401610837565b506001600160a01b0316600090815260cc602052604090205490565b610e4960008051602061395683398151915233611086565b80610e5c57506001600160a01b03831633145b610e785760405162461bcd60e51b815260040161083790613695565b6000825111610e995760405162461bcd60e51b8152600401610837906136e9565b64e8d4a5100081118015610eb35750610eb181611392565b155b610f27576040805162461bcd60e51b81526020600482015260248101919091527f4c3145524337323156313a206d75737420737570706c79206672657368206f6660448201527f66636861696e4964283e313030303030303030303030302920746f206d696e746064820152608401610837565b610f308161130e565b5115610f955760405162461bcd60e51b815260206004820152602e60248201527f4c3145524337323156313a20737570706c696564206f6666636861696e49642060448201526d616c72656164792065786973747360901b6064820152608401610837565b80610fa08482611ac3565b610faa818461141d565b836001600160a01b031682827f259eb7b480b3d449f506927269e4665c83c69e4cd797143eaa8f84632dc7a02b60405160405180910390a450505050565b61100060008051602061390f83398151915233611086565b61105f5760405162461bcd60e51b815260206004820152602a60248201527f4c3145524337323156313a206d75737420686176652070617573657220726f6c6044820152696520746f20706175736560b01b6064820152608401610837565b610bf1611add565b600082815260976020526040812061107f9083611b5a565b9392505050565b60009182526065602090815260408084206001600160a01b0393909316845291905290205460ff1690565b606060ca805461074c90613820565b6001600160a01b0382163314156111195760405162461bcd60e51b815260206004820152601960248201527f4552433732313a20617070726f766520746f2063616c6c6572000000000000006044820152606401610837565b33600081815260ce602090815260408083206001600160a01b03871680855290835292819020805460ff191686151590811790915590519081529192917f17307eab39ab6107e8899845ad3d59bd9653f200f220920489ca2b5937696c31910160405180910390a35050565b600054610100900460ff168061119e575060005460ff16155b6111ba5760405162461bcd60e51b815260040161083790613647565b600054610100900460ff161580156111dc576000805461ffff19166101011790555b6111e7848484611b66565b80156111f9576000805461ff00191690555b50505050565b61120933836114a9565b6112255760405162461bcd60e51b81526004016108379061372a565b6111f984848484611c10565b61124960008051602061395683398151915233611086565b8061125c57506001600160a01b03831633145b6112785760405162461bcd60e51b815260040161083790613695565b60008251116112995760405162461bcd60e51b8152600401610837906136e9565b6112a861025980546001019055565b60006112b46102595490565b90506112c08482611ac3565b6112ca818461141d565b81156111f957836001600160a01b031682827f259eb7b480b3d449f506927269e4665c83c69e4cd797143eaa8f84632dc7a02b60405160405180910390a450505050565b606061073782611c43565b6000828260405160200161132e9291906134cc565b60405160208183030381529060405280519060200120905092915050565b600081815260976020526040812061073790611db3565b610b318282611dbd565b60006001600160e01b0319821663780e9d6360e01b1480610737575061073782611de3565b600090815260cb60205260409020546001600160a01b0316151590565b600081815260cd6020526040902080546001600160a01b0319166001600160a01b03841690811790915581906113e482610d33565b6001600160a01b03167f8c5be1e5ebec7d5bd14f71427d1e84f3dd0314c0f7b2291e5b200ac8c7c3b92560405160405180910390a45050565b61142682611392565b6114895760405162461bcd60e51b815260206004820152602e60248201527f45524337323155524953746f726167653a2055524920736574206f66206e6f6e60448201526d32bc34b9ba32b73a103a37b5b2b760911b6064820152608401610837565b60008281526101c360209081526040909120825161096d92840190612f4c565b60006114b482611392565b6115155760405162461bcd60e51b815260206004820152602c60248201527f4552433732313a206f70657261746f7220717565727920666f72206e6f6e657860448201526b34b9ba32b73a103a37b5b2b760a11b6064820152608401610837565b600061152083610d33565b9050806001600160a01b0316846001600160a01b0316148061155b5750836001600160a01b0316611550846107cf565b6001600160a01b0316145b8061158b57506001600160a01b03808216600090815260ce602090815260408083209388168352929052205460ff165b949350505050565b826001600160a01b03166115a682610d33565b6001600160a01b03161461160e5760405162461bcd60e51b815260206004820152602960248201527f4552433732313a207472616e73666572206f6620746f6b656e2074686174206960448201526839903737ba1037bbb760b91b6064820152608401610837565b6001600160a01b0382166116705760405162461bcd60e51b8152602060048201526024808201527f4552433732313a207472616e7366657220746f20746865207a65726f206164646044820152637265737360e01b6064820152608401610837565b61167b838383611e23565b6116866000826113af565b6001600160a01b038316600090815260cc602052604081208054600192906116af9084906137c6565b90915550506001600160a01b038216600090815260cc602052604081208054600192906116dd90849061377b565b9091555050600081815260cb602052604080822080546001600160a01b0319166001600160a01b0386811691821790925591518493918716917fddf252ad1be2c89b69c2b068fc378daa952ba7f163c4a11628f55a4df523b3ef91a4505050565b60008281526065602052604090206001015461175a8133611e2e565b61096d8383611e92565b600061107f836001600160a01b038416611f18565b6001600160a01b03811633146117e95760405162461bcd60e51b815260206004820152602f60248201527f416363657373436f6e74726f6c3a2063616e206f6e6c792072656e6f756e636560448201526e103937b632b9903337b91039b2b63360891b6064820152608401610837565b610c9a8282611f67565b600061107f836001600160a01b038416611fce565b6118327f88aa719609f728b0c5e7fb8dd3608d5c25d497efbb3b9dd64e9251ebba10150833611086565b610b6d5760405162461bcd60e51b815260206004820152603660248201527f4c3145524337323156313a206f6e6c7920616464726573732077697468207570604482015275677261646520726f6c652063616e207570677261646560501b6064820152608401610837565b60006118d07f360894a13ba1a3210667c828492db98dca3e2076cc3735a920a3ca505d382bbc546001600160a01b031690565b90506118db846120c1565b6000835111806118e85750815b156118f9576118f78484612166565b505b7f4910fdfa16fed3260ed0e7147f7cc6da11a60208b5b9406d12a635614ffd9143805460ff16611a1e57805460ff191660011781556040516001600160a01b038316602482015261197890869060440160408051601f198184030181529190526020810180516001600160e01b0316631b2ce7f360e11b179052612166565b50805460ff191681557f360894a13ba1a3210667c828492db98dca3e2076cc3735a920a3ca505d382bbc546001600160a01b03838116911614611a155760405162461bcd60e51b815260206004820152602f60248201527f45524331393637557067726164653a207570677261646520627265616b73206660448201526e75727468657220757067726164657360881b6064820152608401610837565b611a1e85612251565b5050505050565b61015f5460ff16611a6f5760405162461bcd60e51b815260206004820152601460248201527314185d5cd8589b194e881b9bdd081c185d5cd95960621b6044820152606401610837565b61015f805460ff191690557f5db9ee0a495bf2e6ff9c91a7834c1ba4fdd244a5e8aa4e537bd38aeae4b073aa335b6040516001600160a01b03909116815260200160405180910390a1565b610b6d81612291565b610c9a8282604051806020016040528060008152506122d3565b61015f5460ff1615611b245760405162461bcd60e51b815260206004820152601060248201526f14185d5cd8589b194e881c185d5cd95960821b6044820152606401610837565b61015f805460ff191660011790557f62e78cea01bee320cd4e420270b5ea74000d11b0c9f74754ebdbfc544b05a258611a9d3390565b600061107f8383612306565b600054610100900460ff1680611b7f575060005460ff16155b611b9b5760405162461bcd60e51b815260040161083790613647565b600054610100900460ff16158015611bbd576000805461ffff19166101011790555b611bc5612330565b611bcd612330565b611bd5612330565b611bdd612330565b611be7848461239b565b611bef612330565b611bf7612330565b611bff612430565b611c07612330565b6111e7826124a6565b611c1b848484611593565b611c2784848484612577565b6111f95760405162461bcd60e51b8152600401610837906135f5565b6060611c4e82611392565b611cb45760405162461bcd60e51b815260206004820152603160248201527f45524337323155524953746f726167653a2055524920717565727920666f72206044820152703737b732bc34b9ba32b73a103a37b5b2b760791b6064820152608401610837565b60008281526101c3602052604081208054611cce90613820565b80601f0160208091040260200160405190810160405280929190818152602001828054611cfa90613820565b8015611d475780601f10611d1c57610100808354040283529160200191611d47565b820191906000526020600020905b815481529060010190602001808311611d2a57829003601f168201915b505050505090506000611d6560408051602081019091526000815290565b9050805160001415611d78575092915050565b815115611daa578082604051602001611d929291906134dc565b60405160208183030381529060405292505050919050565b61158b84612684565b6000610737825490565b600082815260656020526040902060010154611dd98133611e2e565b61096d8383611f67565b60006001600160e01b031982166380ac58cd60e01b1480611e1457506001600160e01b03198216635b5e139f60e01b145b8061073757506107378261275b565b61096d838383612780565b611e388282611086565b610c9a57611e50816001600160a01b031660146127f3565b611e5b8360206127f3565b604051602001611e6c92919061350b565b60408051601f198184030181529082905262461bcd60e51b8252610837916004016135bd565b611e9c8282611086565b610c9a5760008281526065602090815260408083206001600160a01b03851684529091529020805460ff19166001179055611ed43390565b6001600160a01b0316816001600160a01b0316837f2f8788117e7eff1d82e926ec794901d17c78024a50270940304540a733656f0d60405160405180910390a45050565b6000818152600183016020526040812054611f5f57508154600181810184556000848152602080822090930184905584548482528286019093526040902091909155610737565b506000610737565b611f718282611086565b15610c9a5760008281526065602090815260408083206001600160a01b0385168085529252808320805460ff1916905551339285917ff6391f5c32d9c69d2a47ea670b442974b53935d1edc7fd64eb21e047a839171b9190a45050565b600081815260018301602052604081205480156120b7576000611ff26001836137c6565b8554909150600090612006906001906137c6565b905081811461206b576000866000018281548110612026576120266138cc565b9060005260206000200154905080876000018481548110612049576120496138cc565b6000918252602080832090910192909255918252600188019052604090208390555b855486908061207c5761207c6138b6565b600190038181906000526020600020016000905590558560010160008681526020019081526020016000206000905560019350505050610737565b6000915050610737565b803b6121255760405162461bcd60e51b815260206004820152602d60248201527f455243313936373a206e657720696d706c656d656e746174696f6e206973206e60448201526c1bdd08184818dbdb9d1c9858dd609a1b6064820152608401610837565b7f360894a13ba1a3210667c828492db98dca3e2076cc3735a920a3ca505d382bbc80546001600160a01b0319166001600160a01b0392909216919091179055565b6060823b6121c55760405162461bcd60e51b815260206004820152602660248201527f416464726573733a2064656c65676174652063616c6c20746f206e6f6e2d636f6044820152651b9d1c9858dd60d21b6064820152608401610837565b600080846001600160a01b0316846040516121e091906134b0565b600060405180830381855af49150503d806000811461221b576040519150601f19603f3d011682016040523d82523d6000602084013e612220565b606091505b5091509150612248828260405180606001604052806027815260200161392f6027913961298f565b95945050505050565b61225a816120c1565b6040516001600160a01b038216907fbc7cd75a20ee27fd9adebab32041f755214dbc6bffa90cc0225b39da2e5c2d3b90600090a250565b61229a816129c8565b60008181526101c36020526040902080546122b490613820565b159050610b6d5760008181526101c360205260408120610b6d91612fd0565b6122dd8383612a6f565b6122ea6000848484612577565b61096d5760405162461bcd60e51b8152600401610837906135f5565b600082600001828154811061231d5761231d6138cc565b9060005260206000200154905092915050565b600054610100900460ff1680612349575060005460ff16155b6123655760405162461bcd60e51b815260040161083790613647565b600054610100900460ff16158015612387576000805461ffff19166101011790555b8015610b6d576000805461ff001916905550565b600054610100900460ff16806123b4575060005460ff16155b6123d05760405162461bcd60e51b815260040161083790613647565b600054610100900460ff161580156123f2576000805461ffff19166101011790555b82516124059060c9906020860190612f4c565b5081516124199060ca906020850190612f4c565b50801561096d576000805461ff0019169055505050565b600054610100900460ff1680612449575060005460ff16155b6124655760405162461bcd60e51b815260040161083790613647565b600054610100900460ff16158015612487576000805461ffff19166101011790555b61015f805460ff191690558015610b6d576000805461ff001916905550565b600054610100900460ff16806124bf575060005460ff16155b6124db5760405162461bcd60e51b815260040161083790613647565b600054610100900460ff161580156124fd576000805461ffff19166101011790555b612508600033612bae565b61252060008051602061395683398151915233612bae565b61253860008051602061390f83398151915233612bae565b6125627f88aa719609f728b0c5e7fb8dd3608d5c25d497efbb3b9dd64e9251ebba10150833612bae565b8015610c9a576000805461ff00191690555050565b60006001600160a01b0384163b1561267957604051630a85bd0160e11b81526001600160a01b0385169063150b7a02906125bb903390899088908890600401613580565b602060405180830381600087803b1580156125d557600080fd5b505af1925050508015612605575060408051601f3d908101601f191682019092526126029181019061333c565b60015b61265f573d808015612633576040519150601f19603f3d011682016040523d82523d6000602084013e612638565b606091505b5080516126575760405162461bcd60e51b8152600401610837906135f5565b805181602001fd5b6001600160e01b031916630a85bd0160e11b14905061158b565b506001949350505050565b606061268f82611392565b6126f35760405162461bcd60e51b815260206004820152602f60248201527f4552433732314d657461646174613a2055524920717565727920666f72206e6f60448201526e3732bc34b9ba32b73a103a37b5b2b760891b6064820152608401610837565b600061270a60408051602081019091526000815290565b9050600081511161272a576040518060200160405280600081525061107f565b8061273484612bb8565b6040516020016127459291906134dc565b6040516020818303038152906040529392505050565b60006001600160e01b03198216635a05180f60e01b1480610737575061073782612cb6565b61278b838383612ceb565b61015f5460ff161561096d5760405162461bcd60e51b815260206004820152602b60248201527f4552433732315061757361626c653a20746f6b656e207472616e73666572207760448201526a1a1a5b19481c185d5cd95960aa1b6064820152608401610837565b606060006128028360026137a7565b61280d90600261377b565b67ffffffffffffffff811115612825576128256138e2565b6040519080825280601f01601f19166020018201604052801561284f576020820181803683370190505b509050600360fc1b8160008151811061286a5761286a6138cc565b60200101906001600160f81b031916908160001a905350600f60fb1b81600181518110612899576128996138cc565b60200101906001600160f81b031916908160001a90535060006128bd8460026137a7565b6128c890600161377b565b90505b6001811115612940576f181899199a1a9b1b9c1cb0b131b232b360811b85600f16601081106128fc576128fc6138cc565b1a60f81b828281518110612912576129126138cc565b60200101906001600160f81b031916908160001a90535060049490941c9361293981613809565b90506128cb565b50831561107f5760405162461bcd60e51b815260206004820181905260248201527f537472696e67733a20686578206c656e67746820696e73756666696369656e746044820152606401610837565b6060831561299e57508161107f565b8251156129ae5782518084602001fd5b8160405162461bcd60e51b815260040161083791906135bd565b60006129d382610d33565b90506129e181600084611e23565b6129ec6000836113af565b6001600160a01b038116600090815260cc60205260408120805460019290612a159084906137c6565b9091555050600082815260cb602052604080822080546001600160a01b0319169055518391906001600160a01b038416907fddf252ad1be2c89b69c2b068fc378daa952ba7f163c4a11628f55a4df523b3ef908390a45050565b6001600160a01b038216612ac55760405162461bcd60e51b815260206004820181905260248201527f4552433732313a206d696e7420746f20746865207a65726f20616464726573736044820152606401610837565b612ace81611392565b15612b1b5760405162461bcd60e51b815260206004820152601c60248201527f4552433732313a20746f6b656e20616c7265616479206d696e746564000000006044820152606401610837565b612b2760008383611e23565b6001600160a01b038216600090815260cc60205260408120805460019290612b5090849061377b565b9091555050600081815260cb602052604080822080546001600160a01b0319166001600160a01b03861690811790915590518392907fddf252ad1be2c89b69c2b068fc378daa952ba7f163c4a11628f55a4df523b3ef908290a45050565b610a788282612da5565b606081612bdc5750506040805180820190915260018152600360fc1b602082015290565b8160005b8115612c065780612bf08161385b565b9150612bff9050600a83613793565b9150612be0565b60008167ffffffffffffffff811115612c2157612c216138e2565b6040519080825280601f01601f191660200182016040528015612c4b576020820181803683370190505b5090505b841561158b57612c606001836137c6565b9150612c6d600a86613876565b612c7890603061377b565b60f81b818381518110612c8d57612c8d6138cc565b60200101906001600160f81b031916908160001a905350612caf600a86613793565b9450612c4f565b60006001600160e01b03198216637965db0b60e01b148061073757506301ffc9a760e01b6001600160e01b0319831614610737565b6001600160a01b038316612d4857612d438161012f8054600083815261013060205260408120829055600182018355919091527f232da9e50dad2971456a78fb5cd6ff6b75019984d6e918139ce990999420f9790155565b612d6b565b816001600160a01b0316836001600160a01b031614612d6b57612d6b8382612daf565b6001600160a01b038216612d825761096d81612e51565b826001600160a01b0316826001600160a01b03161461096d5761096d8282612f06565b610c9a8282611e92565b60006001612dbc84610daa565b612dc691906137c6565b600083815261012e6020526040902054909150808214612e1c576001600160a01b038416600090815261012d60209081526040808320858452825280832054848452818420819055835261012e90915290208190555b50600091825261012e602090815260408084208490556001600160a01b03909416835261012d81528383209183525290812055565b61012f54600090612e64906001906137c6565b6000838152610130602052604081205461012f8054939450909284908110612e8e57612e8e6138cc565b906000526020600020015490508061012f8381548110612eb057612eb06138cc565b6000918252602080832090910192909255828152610130909152604080822084905585825281205561012f805480612eea57612eea6138b6565b6001900381819060005260206000200160009055905550505050565b6000612f1183610daa565b6001600160a01b03909316600090815261012d60209081526040808320868452825280832085905593825261012e9052919091209190915550565b828054612f5890613820565b90600052602060002090601f016020900481019282612f7a5760008555612fc0565b82601f10612f9357805160ff1916838001178555612fc0565b82800160010185558215612fc0579182015b82811115612fc0578251825591602001919060010190612fa5565b50612fcc929150613006565b5090565b508054612fdc90613820565b6000825580601f10612fec575050565b601f016020900490600052602060002090810190610b6d91905b5b80821115612fcc5760008155600101613007565b80356001600160a01b038116811461303257600080fd5b919050565b600082601f83011261304857600080fd5b813567ffffffffffffffff80821115613063576130636138e2565b604051601f8301601f19908116603f0116810190828211818310171561308b5761308b6138e2565b816040528381528660208588010111156130a457600080fd5b836020870160208301376000602085830101528094505050505092915050565b6000602082840312156130d657600080fd5b61107f8261301b565b600080604083850312156130f257600080fd5b6130fb8361301b565b91506131096020840161301b565b90509250929050565b60008060006060848603121561312757600080fd5b6131308461301b565b925061313e6020850161301b565b9150604084013590509250925092565b6000806000806080858703121561316457600080fd5b61316d8561301b565b935061317b6020860161301b565b925060408501359150606085013567ffffffffffffffff81111561319e57600080fd5b6131aa87828801613037565b91505092959194509250565b600080604083850312156131c957600080fd5b6131d28361301b565b9150602083013580151581146131e757600080fd5b809150509250929050565b6000806040838503121561320557600080fd5b61320e8361301b565b9150602083013567ffffffffffffffff81111561322a57600080fd5b61323685828601613037565b9150509250929050565b60008060006060848603121561325557600080fd5b61325e8461301b565b9250602084013567ffffffffffffffff81111561327a57600080fd5b61328686828701613037565b925050604084013590509250925092565b600080604083850312156132aa57600080fd5b6132b38361301b565b946020939093013593505050565b6000602082840312156132d357600080fd5b5035919050565b600080604083850312156132ed57600080fd5b823591506131096020840161301b565b6000806040838503121561331057600080fd5b50508035926020909101359150565b60006020828403121561333157600080fd5b813561107f816138f8565b60006020828403121561334e57600080fd5b815161107f816138f8565b6000806020838503121561336c57600080fd5b823567ffffffffffffffff8082111561338457600080fd5b818501915085601f83011261339857600080fd5b8135818111156133a757600080fd5b8660208285010111156133b957600080fd5b60209290920196919550909350505050565b6000806000606084860312156133e057600080fd5b833567ffffffffffffffff808211156133f857600080fd5b61340487838801613037565b9450602086013591508082111561341a57600080fd5b61342687838801613037565b9350604086013591508082111561343c57600080fd5b5061344986828701613037565b9150509250925092565b6000806040838503121561346657600080fd5b82359150602083013567ffffffffffffffff81111561322a57600080fd5b6000815180845261349c8160208601602086016137dd565b601f01601f19169290920160200192915050565b600082516134c28184602087016137dd565b9190910192915050565b8183823760009101908152919050565b600083516134ee8184602088016137dd565b8351908301906135028183602088016137dd565b01949350505050565b7f416363657373436f6e74726f6c3a206163636f756e74200000000000000000008152600083516135438160178501602088016137dd565b7001034b99036b4b9b9b4b733903937b6329607d1b60179184019182015283516135748160288401602088016137dd565b01602801949350505050565b6001600160a01b03858116825284166020820152604081018390526080606082018190526000906135b390830184613484565b9695505050505050565b60208152600061107f6020830184613484565b6040815260006135e36040830185613484565b82810360208401526122488185613484565b60208082526032908201527f4552433732313a207472616e7366657220746f206e6f6e20455243373231526560408201527131b2b4bb32b91034b6b83632b6b2b73a32b960711b606082015260800190565b6020808252602e908201527f496e697469616c697a61626c653a20636f6e747261637420697320616c72656160408201526d191e481a5b9a5d1a585b1a5e995960921b606082015260800190565b60208082526034908201527f4c3145524337323156313a206d7573742068617665206d696e74657220726f6c6040820152736520746f206d696e7420666f72206f746865727360601b606082015260800190565b60208082526021908201527f4c3145524337323156313a206d75737420737570706c79205f746f6b656e55526040820152604960f81b606082015260800190565b60208082526031908201527f4552433732313a207472616e736665722063616c6c6572206973206e6f74206f6040820152701ddb995c881b9bdc88185c1c1c9bdd9959607a1b606082015260800190565b6000821982111561378e5761378e61388a565b500190565b6000826137a2576137a26138a0565b500490565b60008160001904831182151516156137c1576137c161388a565b500290565b6000828210156137d8576137d861388a565b500390565b60005b838110156137f85781810151838201526020016137e0565b838111156111f95750506000910152565b6000816138185761381861388a565b506000190190565b600181811c9082168061383457607f821691505b6020821081141561385557634e487b7160e01b600052602260045260246000fd5b50919050565b600060001982141561386f5761386f61388a565b5060010190565b600082613885576138856138a0565b500690565b634e487b7160e01b600052601160045260246000fd5b634e487b7160e01b600052601260045260246000fd5b634e487b7160e01b600052603160045260246000fd5b634e487b7160e01b600052603260045260246000fd5b634e487b7160e01b600052604160045260246000fd5b6001600160e01b031981168114610b6d57600080fdfe65d7a28e3265b37a6474929f336521b332c1681b933f6cb9f3376673440d862a416464726573733a206c6f772d6c6576656c2064656c65676174652063616c6c206661696c65649f2df0fed2c77648de5860a4cc508cd0818c85b8b8a1ab4ceeef8d981c8956a6a26469706673582212203525152daa8dc7ab4cd8230a83d72ef92eae9510240e479bbf00ebbeb2427d3b64736f6c63430008070033",
    "sourcePath": "d:/OAS/oas-api/oas/misc/contracts/L1ERC721V1.sol",
    "compiler": {
        "name": "solc",
        "version": "0.8.7+commit.e28d00a7"
    },
    "functionHashes": {
        "DEFAULT_ADMIN_ROLE()": "a217fddf",
        "MINTER_ROLE()": "d5391393",
        "PAUSER_ROLE()": "e63ab1e9",
        "UPGRADE_ROLE()": "b908afa8",
        "approve(address,uint256)": "095ea7b3",
        "balanceOf(address)": "70a08231",
        "burn(uint256)": "42966c68",
        "getApproved(uint256)": "081812fc",
        "getRoleAdmin(bytes32)": "248a9ca3",
        "getRoleMember(bytes32,uint256)": "9010d07c",
        "getRoleMemberCount(bytes32)": "ca15c873",
        "grantRole(bytes32,address)": "2f2ff15d",
        "hasRole(bytes32,address)": "91d14854",
        "initialize(string,string,string)": "a6487c53",
        "isApprovedForAll(address,address)": "e985e9c5",
        "makeOffchainId(string)": "c9b0aeba",
        "mint(address,string,uint256)": "ba7aef43",
        "mintWith(address,string,uint256)": "81b27aea",
        "name()": "06fdde03",
        "ownerOf(uint256)": "6352211e",
        "pause()": "8456cb59",
        "paused()": "5c975abb",
        "renounceRole(bytes32,address)": "36568abe",
        "revokeRole(bytes32,address)": "d547741f",
        "safeTransferFrom(address,address,uint256)": "42842e0e",
        "safeTransferFrom(address,address,uint256,bytes)": "b88d4fde",
        "setApprovalForAll(address,bool)": "a22cb465",
        "setTokenURI(uint256,string)": "162094c4",
        "supportsInterface(bytes4)": "01ffc9a7",
        "symbol()": "95d89b41",
        "tokenByIndex(uint256)": "4f6ccce7",
        "tokenOfOwnerByIndex(address,uint256)": "2f745c59",
        "tokenURI(uint256)": "c87b56dd",
        "totalSupply()": "18160ddd",
        "transferFrom(address,address,uint256)": "23b872dd",
        "unpause()": "3f4ba83a",
        "upgradeTo(address)": "3659cfe6",
        "upgradeToAndCall(address,bytes)": "4f1ef286"
    },
    "gasEstimates": {
        "creation": {
            "codeDepositCost": "2952600",
            "executionCost": "3239",
            "totalCost": "2955839"
        },
        "external": {
            "DEFAULT_ADMIN_ROLE()": "284",
            "MINTER_ROLE()": "infinite",
            "PAUSER_ROLE()": "infinite",
            "UPGRADE_ROLE()": "262",
            "approve(address,uint256)": "infinite",
            "balanceOf(address)": "2635",
            "burn(uint256)": "infinite",
            "getApproved(uint256)": "4822",
            "getRoleAdmin(bytes32)": "2556",
            "getRoleMember(bytes32,uint256)": "infinite",
            "getRoleMemberCount(bytes32)": "infinite",
            "grantRole(bytes32,address)": "infinite",
            "hasRole(bytes32,address)": "2699",
            "initialize(string,string,string)": "infinite",
            "isApprovedForAll(address,address)": "infinite",
            "makeOffchainId(string)": "infinite",
            "mint(address,string,uint256)": "infinite",
            "mintWith(address,string,uint256)": "infinite",
            "name()": "infinite",
            "ownerOf(uint256)": "2689",
            "pause()": "infinite",
            "paused()": "2404",
            "renounceRole(bytes32,address)": "infinite",
            "revokeRole(bytes32,address)": "infinite",
            "safeTransferFrom(address,address,uint256)": "infinite",
            "safeTransferFrom(address,address,uint256,bytes)": "infinite",
            "setApprovalForAll(address,bool)": "26739",
            "setTokenURI(uint256,string)": "infinite",
            "supportsInterface(bytes4)": "infinite",
            "symbol()": "infinite",
            "tokenByIndex(uint256)": "6804",
            "tokenOfOwnerByIndex(address,uint256)": "4976",
            "tokenURI(uint256)": "infinite",
            "totalSupply()": "2349",
            "transferFrom(address,address,uint256)": "infinite",
            "unpause()": "infinite",
            "upgradeTo(address)": "infinite",
            "upgradeToAndCall(address,bytes)": "infinite"
        },
        "internal": {
            "__ERC721PresetMinterPauserAutoId_init(string memory,string memory,string memory)": "infinite",
            "__ERC721PresetMinterPauserAutoId_init_unchained(string memory)": "infinite",
            "_authorizeUpgrade(address)": "infinite",
            "_beforeTokenTransfer(address,address,uint256)": "infinite",
            "_burn(uint256)": "infinite"
        }
    }
}